:100000000C9463000C948B000C948B000C948B006C
:100010000C948B000C948B000C948B000C948B0034
:100020000C948B000C948B000C948B000C948B0024
:100030000C948B000C948B000C948B000C948B0014
:100040000C94AE020C948B000C947C020C9456021F
:100050000C948B000C948B000C948B000C948B00F4
:100060000C948B000C948B000000000025002800ED
:100070002B0000000000240027002A0000000008D8
:10008000000201000003040700000000000000005F
:1000900000000000230026002900040404040404D6
:1000A0000404020202020202030303030303010227
:1000B00004081020408001020408102001020408F6
:1000C00010203D03570511241FBECFEFD8E0DEBF3F
:1000D000CDBF21E0A2E4B1E001C01D92A73FB2076D
:1000E000E1F711E0A0E0B1E0E8E9FFE002C005902F
:1000F0000D92A234B107D9F710E0C2E6D0E004C0F7
:100100002197FE010E94C705C136D107C9F70E9499
:1001100078030C94BF070C9400000895AF92BF922F
:10012000CF92DF92EF92FF920F931F93CF93DF93C3
:100130006C017B018B01040F151FEB015E01AE18F2
:10014000BF08C017D10759F06991D601ED91FC9114
:100150000190F081E02DC6010995892B79F7C50141
:10016000DF91CF911F910F91FF90EF90DF90CF9093
:10017000BF90AF900895FC01538D448D252F30E042
:10018000842F90E0821B930B541710F0CF960895A4
:1001900001970895FC01918D828D981761F0A28DD1
:1001A000AE0FBF2FB11D5D968C91928D9F5F9F7397
:1001B000928F90E008958FEF9FEF0895FC01918D4D
:1001C000828D981731F0828DE80FF11D858D90E0BA
:1001D00008958FEF9FEF0895FC01918D228D892F57
:1001E00090E0805C9F4F821B91098F73992708953F
:1001F00080E591E00E94EC0021E0892B09F420E0E9
:10020000822F089580E090E0892B29F00E94F80069
:1002100081110C9400000895FC01A48DA80FB92F42
:10022000B11DA35ABF4F2C91848D90E001968F731E
:100230009927848FA689B7892C93A089B1898C913D
:10024000837080648C93938D848D981306C002888C
:10025000F389E02D80818F7D80830895EF92FF9256
:100260000F931F93CF93DF93EC0181E0888F9B8DD9
:100270008C8D98131AC0E889F989808185FF15C093
:100280009FB7F894EE89FF896083E889F9898081B6
:100290008370806480839FBF81E090E0DF91CF9185
:1002A0001F910F91FF90EF900895F62E0B8D10E0A7
:1002B0000F5F1F4F0F731127E02E8C8D8E110CC016
:1002C0000FB607FCFACFE889F989808185FFF5CF61
:1002D000CE010E940C01F1CFEB8DEC0FFD2FF11D33
:1002E000E35AFF4FF0829FB7F8940B8FEA89FB899E
:1002F00080818062CFCFCF93DF93EC01888D8823FC
:10030000B9F0AA89BB89E889F9898C9185FD03C078
:10031000808186FD0DC00FB607FCF7CF8C9185FF5D
:10032000F2CF808185FFEDCFCE010E940C01E9CF95
:10033000DF91CF910895CF93DF9390E0FC01E255D8
:10034000FF4F249186569F4FFC0184918823D1F062
:1003500090E0880F991FFC01EE58FF4FA591B491D2
:10036000FC01E859FF4FC591D49161110EC09FB7B0
:10037000F8948C91E22FE0958E238C932881E223D0
:10038000E8839FBFDF91CF9108958FB7F894EC91E8
:10039000E22BEC938FBFF6CF42E050E068E171E0D2
:1003A00080E591E00C948E00FC01808191810097A2
:1003B00011F00C94690608950F931F93CF93DF9368
:1003C000EC0188819981009759F02A813B81261799
:1003D000370730F081E0DF91CF911F910F910895A1
:1003E0008B016F5F7F4F0E94F206009759F099834F
:1003F00088831B830A832C813D81232B59F7FC01C1
:100400001082E8CF80E0E7CFEF92FF920F931F9327
:10041000CF93DF9341155105B1F07B01EC010C81C5
:100420001D81040F151FB8010E94DC01882361F0B3
:10043000288139818C819D81B701820F931F0E9491
:10044000B8071D830C8381E0DF91CF911F910F913D
:10045000FF90EF900895EF92FF920F931F93CF9329
:10046000DF93EC017B018A01BA010E94DC01288143
:100470003981811114C02115310519F0C9010E947B
:100480006906198218821D821C821B821A82CE0183
:10049000DF91CF911F910F91FF90EF9008951D83F1
:1004A0000C83B701C9010E94B807F1CF1F920F92C8
:1004B0000FB60F9211242F933F934F935F936F9337
:1004C0007F938F939F93AF93BF93EF93FF9380E5B9
:1004D00091E00E940C01FF91EF91BF91AF919F912C
:1004E0008F917F916F915F914F913F912F910F90DD
:1004F0000FBE0F901F9018951F920F920FB60F927C
:1005000011242F938F939F93EF93FF93E0916001BA
:10051000F09161018081E0916601F091670182FDB7
:100520001BC09081809169018F5F8F7320916A0158
:10053000821741F0E0916901F0E0E05BFE4F958F9A
:1005400080936901FF91EF919F918F912F910F906F
:100550000FBE0F901F9018958081F4CF1F920F92BD
:100560000FB60F9211242F933F938F939F93AF93C6
:10057000BF938091470190914801A0914901B091AA
:100580004A013091460123E0230F2D3758F501969B
:10059000A11DB11D2093460180934701909348010E
:1005A000A0934901B0934A01809142019091430187
:1005B000A0914401B09145010196A11DB11D809308
:1005C000420190934301A0934401B0934501BF9130
:1005D000AF919F918F913F912F910F900FBE0F90F0
:1005E0001F90189526E8230F0296A11DB11DD2CFAA
:1005F000CF92DF92EF92FF920F931F93E82FF92F84
:1006000005C0015011092109310961F1908196233A
:100610009417B9F305C0015011092109310911F1ED
:10062000908196239413F7CFC12CD12CE12CF12C7F
:100630000AC08FEFC81AD80AE80AF80A0C151D0577
:100640002E053F0579F080818623841791F36C2D68
:100650007D2D8E2D9F2D1F910F91FF90EF90DF909C
:10066000CF90089560E070E080E090E01F910F91DE
:10067000FF90EF90DF90CF900895E0E5F1E01382D6
:10068000128288EE93E0A0E0B0E084839583A68395
:10069000B7838AE091E09183808385EC90E0958731
:1006A000848784EC90E09787868780EC90E0918B3C
:1006B000808B81EC90E0938B828B82EC90E0958B29
:1006C000848B86EC90E0978B868B118E128E138E26
:1006D000148EEDEEF1E011821082138212821582E7
:1006E000148250E040E06AE171E0CF010C942B02EB
:1006F000CF93DF93CDB7DEB72E970FB6F894DEBF5A
:100700000FBECDBF789484B5826084BD84B581600E
:1007100084BD85B5826085BD85B5816085BD8091CC
:100720006E00816080936E00109281008091810044
:10073000826080938100809181008160809381003C
:10074000809180008160809380008091B1008460FE
:100750008093B1008091B00081608093B00080915F
:100760007A00846080937A0080917A00826080931E
:100770007A0080917A00816080937A0080917A007B
:10078000806880937A001092C10061E08DE00E9441
:100790009B0161E083E00E949B0160E082E00E9497
:1007A0009B0160E087E00E949B01E0916001F09175
:1007B000610182E08083E0915C01F0915D01108233
:1007C000E0915E01F0915F018FEC808310926801EF
:1007D000E0916401F091650186E08083E09162011F
:1007E000F0916301808180618083E0916201F091EA
:1007F0006301808188608083E0916201F0916301F0
:10080000808180688083E0916201F0916301808142
:100810008F7D808340EB242E40E0342E5CE9452E12
:1008200050E0552E63E8C62E60E0D62E75EBA72E5D
:1008300070E0B72ECE0101967C0131EA832E30E0C4
:10084000932E20E0622E20E0722E80E591E00E943F
:10085000EC00181619060CF0E3C080E591E00E9448
:10086000CA0042E150E06BE171E080E591E00E9456
:100870008E000E94CC0148E050E06EE271E08DEE07
:1008800091E00E942B0210924F01F1016491F2015C
:100890008491E82FF0E0EE0FFF1FE057FF4F8591A6
:1008A000949100EA16E821E030E0462F0E94F80219
:1008B0001A8619861C861B861E861D866091ED0190
:1008C0007091EE016115710541F04091F101509177
:1008D000F201CE0109960E942B02F6018491F501E6
:1008E0009491F401249110E000E02223E9F08823A0
:1008F00059F0833009F4ABC008F09EC0813009F490
:10090000ACC0823009F4ADC0E22FF0E0EE0FFF1F63
:10091000E057FF4FA591B4918C91982321E080E09E
:1009200009F420E0022F182F10934E0100934D017F
:1009300080914B0190914C018017910749F1F1E0B2
:10094000F0934F0110934C0100934B0147E050E0AE
:1009500067E371E0CE0109960E9404024AE0B70104
:10096000C8010E945B05F70101900020E9F731976B
:10097000AF014E195F09B701CE0109960E9404022A
:1009800041E050E06FE371E0CE0109960E9404025D
:1009900069857A857A8369838B859C859C838B8323
:1009A0002D853E853E832D831A8619861C861B86DF
:1009B0001E861D868091ED019091EE01009709F44D
:1009C0005FC06115710509F459C04091EF01509164
:1009D000F0014217530708F451C00E94B8078D81F7
:1009E0009E819093F2018093F1011E821D82C701C6
:1009F0000E94D401CE0109960E94D40180914F013A
:100A0000882371F04091F1015091F2016091ED0164
:100A10007091EE0180E591E00E948E000E94CC0171
:100A20006114710409F411CF0E94F800882309F4BD
:100A300008CF0E94000001CF8730B1F08830D1F09C
:100A4000843009F061CF809180008F7D03C0809158
:100A500080008F778093800057CF84B58F7784BDD7
:100A600053CF84B58F7DFBCF8091B0008F7780937B
:100A7000B0004ACF8091B0008F7DF9CF0E94690607
:100A800089819A819093EE018093ED018B819C8105
:100A90009093F0018093EF018D819E819093F201FC
:100AA0008093F1011A8219821C821B829ECF8DEEE7
:100AB00091E00C94D401BB274A3031F4992322F4FD
:100AC000BDE2909581959F4F0C946705BB27FB0174
:100AD0005527AA27880F991FAA1FA41710F0A41B37
:100AE00083955051B9F7A05DAA3308F0A95DA19391
:100AF000009779F7B111B1931192CB010C94800555
:100B0000DC01FC01672F71917723E1F7329704C074
:100B10007C916D9370836291AE17BF07C8F30895FF
:100B20002F923F924F925F926F927F928F929F92FD
:100B3000AF92BF92CF92DF92EF92FF920F931F93EB
:100B4000CF93DF93CDB7DEB7CA1BDB0B0FB6F8949C
:100B5000DEBF0FBECDBF09942A88398848885F84DC
:100B60006E847D848C849B84AA84B984C884DF804D
:100B7000EE80FD800C811B81AA81B981CE0FD11D31
:100B80000FB6F894DEBF0FBECDBFED010895EE0F96
:100B9000FF1F0590F491E02D09940F931F93CF93BD
:100BA000DF938230910510F482E090E0E091F5014E
:100BB000F091F60130E020E0B0E0A0E0309799F449
:100BC0002115310509F44AC0281B390B24303105A1
:100BD000D8F58A819B816115710589F1FB019383A9
:100BE0008283FE0111C04081518102811381481727
:100BF0005907E0F04817590799F4109761F01296D9
:100C00000C93129713961C933296CF01DF91CF91DC
:100C10001F910F9108950093F5011093F601F4CF01
:100C20002115310551F04217530738F0A901DB01B6
:100C30009A01BD01DF01F801C1CFEF01F9CF909317
:100C4000F6018093F501CDCFFE01E20FF31F8193F2
:100C500091932250310939832883D7CF2091F30112
:100C60003091F401232B41F42091020130910301D2
:100C70003093F4012093F3012091000130910101A0
:100C80002115310541F42DB73EB740910401509133
:100C90000501241B350BE091F301F091F401E217FB
:100CA000F307A0F42E1B3F0B2817390778F0AC018F
:100CB0004E5F5F4F2417350748F04E0F5F1F50936C
:100CC000F4014093F301819391939FCFF0E0E0E032
:100CD0009CCFCF93DF930097E9F0FC01329713820A
:100CE0001282A091F501B091F601ED0130E020E013
:100CF0001097A1F420813181820F931F2091F3017D
:100D00003091F4012817390709F061C0F093F4011C
:100D1000E093F301DF91CF910895EA01CE17DF0749
:100D2000E8F54A815B819E0141155105B1F7E90162
:100D3000FB83EA8349915991C40FD51FEC17FD0736
:100D400061F4808191810296840F951FE901998356
:100D50008883828193819B838A83F0E0E0E012960E
:100D60008D919C9113970097B9F52D913C91119716
:100D7000CD010296820F931F2091F3013091F4016F
:100D80002817390739F6309751F51092F60110926D
:100D9000F501B093F401A093F301BCCFD383C283D8
:100DA00040815181840F951FC817D90761F44E5FA8
:100DB0005F4F88819981480F591F518340838A81F1
:100DC0009B81938382832115310509F0B0CFF09385
:100DD000F601E093F5019ECFFD01DC01C0CF138247
:100DE0001282D7CFB0E0A0E0E8EFF6E00C949205D5
:100DF0008C01009751F4CB010E94CD058C01C801F4
:100E0000CDB7DEB7E0E10C94AE05FC01E60FF71FAD
:100E10009C0122503109E217F30708F49DC0D90163
:100E2000CD91DC911197C617D70798F0C530D10541
:100E300030F3CE0104978617970708F3C61BD70B2C
:100E40002297C193D1936D937C93CF010E94690641
:100E5000D6CF5B01AC1ABD0A4C018C0E9D1EA09131
:100E6000F501B091F601512C412CF12CE12C109799
:100E700031F58091F3019091F4018815990509F0FD
:100E80005CC04616570608F058C08091000190914A
:100E90000101009741F48DB79EB740910401509134
:100EA0000501841B950BE817F90708F055C0F0936E
:100EB000F401E093F301F90171836083A0CF8D9178
:100EC0009C91119712966C90129713967C901397A1
:100ED000A815B90559F56C0142E0C40ED11CCA141D
:100EE000DB0420F1AC014A195B09DA01129615976F
:100EF00080F06282738251834083D9016D937C9329
:100F0000E114F10471F0D7011396FC93EE9312975C
:100F100076CF22968C0F9D1FF90191838083F30178
:100F2000EFCFF093F601E093F50169CF481659062B
:100F300008F42C017D01D3019ACFCB010E94CD058D
:100F40007C01009749F0AE01B8010E94AF07C801CB
:100F50000E946906870153CF10E000E050CFFB01EB
:100F6000DC0102C001900D9241505040D8F7089525
:100F7000FB01DC0101900D920020E1F7089510E0E3
:100F8000C2E6D0E004C0FE010E94C7052196C33628
:080F9000D107C9F7F894FFCF67
:100F98000000F7018000000000002E018E00BB0059
:100FA8007B01EC00CA00DE000D0A0072656365690A
:100FB80076656420736F6D657468696E6700534564
:100FC8004E534F523A2000627574746F6E3D007C28
:020FD800000017
:00000001FF
