:100000000C9463000C948B000C948B000C948B006C
:100010000C948B000C948B000C948B000C948B0034
:100020000C948B000C948B000C948B000C948B0024
:100030000C948B000C948B000C948B000C948B0014
:100040000C94F1020C948B000C94BF020C94990256
:100050000C948B000C948B000C948B000C948B00F4
:100060000C948B000C948B000000000024002700EF
:100070002A000000000023002600290000000000E4
:10008000250028002B0004040404040404040202D4
:100090000202020203030303030301020408102007
:1000A0004080010204081020010204081020000012
:1000B0000008000201000003040700000000000027
:1000C000000080037E0511241FBECFEFD8E0DEBF05
:1000D000CDBF21E0A0E3B1E001C01D92A43EB20774
:1000E000E1F711E0A0E0B1E0E2E5F2E102C0059045
:1000F0000D92A033B107D9F710E0C2E6D0E004C0FA
:100100002197FE010E942407C136D107C9F70E943A
:10011000F4030C941C090C940000E5EBF0E024912E
:10012000E1EAF0E09491EDE8F0E0E491EE23C9F02B
:10013000222339F0233001F1A8F4213019F12230C3
:1001400029F1F0E0EE0FFF1FE458FF4FA591B491A5
:100150002FB7F894EC91811126C090959E239C9323
:100160002FBF08952730A9F02830C9F0243049F76F
:10017000209180002F7D03C0209180002F77209355
:100180008000DFCF24B52F7724BDDBCF24B52F7DB2
:10019000FBCF2091B0002F772093B000D2CF2091D9
:1001A000B0002F7DF9CF9E2BDACFAF92BF92CF92C6
:1001B000DF92EF92FF920F931F93CF93DF936C0127
:1001C0007B018B01040F151FEB015E01AE18BF0808
:1001D000C017D10759F06991D601ED91FC910190BA
:1001E000F081E02DC6010995892B79F7C501DF91D2
:1001F000CF911F910F91FF90EF90DF90CF90BF9024
:10020000AF900895FC01538D448D252F30E0842F4D
:1002100090E0821B930B541710F0CF96089501972E
:100220000895FC01918D828D981761F0A28DAE0F1B
:10023000BF2FB11D5D968C91928D9F5F9F73928FA2
:1002400090E008958FEF9FEF0895FC01918D828DCE
:10025000981731F0828DE80FF11D858D90E008959B
:100260008FEF9FEF0895FC01918D228D892F90E0F3
:10027000805C9F4F821B91098F73992708958DE3AE
:1002800091E00E94330121E0892B09F420E0822FC4
:10029000089580E090E0892B29F00E943F018111B0
:1002A0000C9400000895FC01A48DA80FB92FB11D76
:1002B000A35ABF4F2C91848D90E001968F7399279C
:1002C000848FA689B7892C93A089B1898C9183707A
:1002D00080648C93938D848D981306C00288F38973
:1002E000E02D80818F7D80830895EF92FF920F93A0
:1002F0001F93CF93DF93EC0181E0888F9B8D8C8DD2
:1003000098131AC0E889F989808185FF15C09FB7C5
:10031000F894EE89FF896083E889F9898081837088
:10032000806480839FBF81E090E0DF91CF911F9137
:100330000F91FF90EF900895F62E0B8D10E00F5F58
:100340001F4F0F731127E02E8C8D8E110CC00FB62E
:1003500007FCFACFE889F989808185FFF5CFCE01C6
:100360000E945301F1CFEB8DEC0FFD2FF11DE35AED
:10037000FF4FF0829FB7F8940B8FEA89FB89808149
:100380008062CFCFCF93DF93EC01888D8823B9F0C3
:10039000AA89BB89E889F9898C9185FD03C0808190
:1003A00086FD0DC00FB607FCF7CF8C9185FFF2CF0D
:1003B000808185FFEDCFCE010E945301E9CFDF910F
:1003C000CF9108953FB7F89480913501909136010F
:1003D000A0913701B091380126B5A89B05C02F3FE9
:1003E00019F00196A11DB11D3FBFBA2FA92F982F5B
:1003F0008827BC01CD01620F711D811D911D42E056
:10040000660F771F881F991F4A95D1F708958F921D
:100410009F92AF92BF92CF92DF92EF92FF924B01E9
:100420005C010E94E2016B017C010E94E2016C19F7
:100430007D098E099F09683E734081059105A8F3E7
:1004400021E0821A9108A108B10888EEC80E83E065
:10045000D81EE11CF11C81149104A104B10429F7F8
:10046000FF90EF90DF90CF90BF90AF909F908F90D4
:10047000089542E050E068E171E08DE391E00C9472
:10048000D500CF93DF93EC018091DA019091DB01ED
:10049000009759F02091DC013091DD012C173D07C8
:1004A00020F081E0DF91CF910895BE016F5F7F4F13
:1004B0000E944F08009789F09093DB018093DA0146
:1004C000D093DD01C093DC012091DE013091DF018A
:1004D000232B39F7FC011082E4CF80E0E3CF0F93A8
:1004E0001F93CF93DF9361157105E9F08C01C091E3
:1004F000DE01D091DF01C60FD71FCE010E9441025D
:10050000882391F02091DA013091DB018091DE01A6
:100510009091DF01B801820F931F0E941509D093BB
:10052000DF01C093DE0181E0DF91CF911F910F9138
:1005300008951F920F920FB60F9211242F933F939D
:100540004F935F936F937F938F939F93AF93BF93DB
:10055000EF93FF938DE391E00E945301FF91EF91A0
:10056000BF91AF919F918F917F916F915F914F91CB
:100570003F912F910F900FBE0F901F9018951F92D3
:100580000F920FB60F9211242F938F939F93EF9397
:10059000FF93E0914D01F0914E018081E091530174
:1005A000F091540182FD1BC09081809156018F5FB4
:1005B0008F7320915701821741F0E0915601F0E0CE
:1005C000E35CFE4F958F80935601FF91EF919F91D1
:1005D0008F912F910F900FBE0F901F9018958081D3
:1005E000F4CF1F920F920FB60F9211242F933F93C7
:1005F0008F939F93AF93BF9380913101909132017C
:10060000A0913301B09134013091300123E0230FE8
:100610002D3758F50196A11DB11D2093300180930F
:10062000310190933201A0933301B0933401809152
:10063000350190913601A0913701B09138010196B2
:10064000A11DB11D8093350190933601A093370110
:10065000B0933801BF91AF919F918F913F912F91AE
:100660000F900FBE0F901F90189526E8230F02964B
:10067000A11DB11DD2CFCF92DF92EF92FF920F93C7
:100680001F93E82FF92F05C00150110921093109E5
:1006900061F1908196239417B9F305C001501109B7
:1006A0002109310911F1908196239413F7CFC12CC0
:1006B000D12CE12CF12C0AC08FEFC81AD80AE80A15
:1006C000F80A0C151D052E053F0579F0808186235B
:1006D000841791F36C2D7D2D8E2D9F2D1F910F91E1
:1006E000FF90EF90DF90CF90089560E070E080E0A1
:1006F00090E01F910F91FF90EF90DF90CF900895C1
:100700001092400110923F0188EE93E0A0E0B0E02B
:100710008093410190934201A0934301B09344011F
:100720008AE091E090933E0180933D0185EC90E05A
:1007300090934A018093490184EC90E090934C019E
:1007400080934B0180EC90E090934E0180934D019B
:1007500081EC90E09093500180934F0182EC90E007
:10076000909352018093510186EC90E09093540154
:100770008093530110925601109257011092580124
:10078000109259011092DB011092DA011092DD01F2
:100790001092DC011092DF011092DE0190E080E007
:1007A0000E9441022091DA013091DB01811113C0D6
:1007B0002115310519F0C9010E94C6071092DB010D
:1007C0001092DA011092DF011092DE011092DD0129
:1007D0001092DC0108951092DF011092DE016AE1AF
:1007E00071E0C9010C941509CF93DF93CDB7DEB743
:1007F00028970FB6F894DEBF0FBECDBF789484B5AE
:10080000826084BD84B5816084BD85B5826085BD0C
:1008100085B5816085BD80916E00816080936E009A
:10082000109281008091810082608093810080918C
:10083000810081608093810080918000816080933D
:1008400080008091B10084608093B1008091B000FD
:1008500081608093B00080917A00846080937A00F8
:1008600080917A00826080937A0080917A00816022
:1008700080937A0080917A00806880937A00109249
:10088000C100E1EAF0E02491EDE8F0E084918823F2
:1008900099F090E0880F991FFC01E859FF4FA5914E
:1008A000B491FC01E458FF4F859194918FB7F8946F
:1008B000EC91E22BEC938FBFE0EAF0E024915CE84E
:1008C000252E50E0352EF10184918823C9F090E067
:1008D000880F991FFC01E859FF4FA591B491FC01C5
:1008E000E458FF4F459154913FB7F8949C91822F63
:1008F000809598239C93FA019081892380833FBF40
:10090000E0914D01F0914E0182E08083E091490138
:10091000F0914A011082E0914B01F0914C018FEC73
:10092000808310925501E0915101F091520186E0CF
:100930008083E0914F01F09150018081806180833C
:10094000E0914F01F0915001808188608083E091B7
:100950004F01F0915001808180688083E0914F01C8
:10096000F091500180818F7D808393E0C92ED12C3E
:1009700023E2A22EB12CCE0101967C0130E0832E21
:1009800030E0932E80E00E948D00C6010197F1F7C0
:1009900081E00E948D00C5010197F1F780E00E947F
:1009A0008D00E0EAF0E06491F1018491E82FF0E03D
:1009B000EE0FFF1FEE58FF4F8591949100E412E473
:1009C0002FE030E0462F0E943B0361157105810541
:1009D000910529F06F5F7F4F8F4F9F4F9F700E944F
:1009E000BE0526E933E44BE05DE30E94F90520E013
:1009F00030E040E05FE30E94F9050E94EE062B0123
:100A00008B0170933C0160933B016EE170E080E0EC
:100A100090E00E94070288E090E00E94410220914D
:100A2000DA013091DB0181115DC02115310519F02A
:100A3000C9010E94C6071092DB011092DA011092E0
:100A4000DF011092DE011092DD011092DC01809135
:100A5000390190913A0148E050E06BE171E00817EC
:100A6000190741F150923A014092390169E070E072
:100A700084E291E00E946F024AE0B701C2010E9445
:100A80008705F70101900020E9F73197BF016E1942
:100A90007F09C7010E946F0261E070E08EE291E081
:100AA0000E946F024091DE015091DF016091DA01F6
:100AB0007091DB018DE391E00E94D5000E94390224
:100AC00064E670E080E090E00E94070281149104E7
:100AD00009F458CF0E943F01882309F453CF0E94A4
:100AE000000050CF88E090E09093DF018093DE011A
:100AF0006BE171E0C9010E941509A9CF8091DA016B
:100B00009091DB01009711F00C94C6070895BB2764
:100B10004A3031F4992322F4BDE2909581959F4F9C
:100B20000C949305BB27FB015527AA27880F991F13
:100B3000AA1FA41710F0A41B83955051B9F7A05D0C
:100B4000AA3308F0A95DA193009779F7B111B19389
:100B50001192CB010C94AC05DC01FC01672F719163
:100B60007723E1F7329704C07C916D937083629193
:100B7000AE17BF07C8F30895E89409C097FB3EF489
:100B800090958095709561957F4F8F4F9F4F9923DA
:100B9000A9F0F92F96E9BB279395F6958795779558
:100BA0006795B795F111F8CFFAF4BB0F11F460FF18
:100BB0001BC06F5F7F4F8F4F9F4F16C0882311F070
:100BC00096E911C0772321F09EE8872F762F05C084
:100BD000662371F096E8862F70E060E02AF09A951F
:100BE000660F771F881FDAF7880F9695879597F914
:100BF00008950E940C060C947D060E946F0638F042
:100C00000E94760620F0952311F00C9466060C9451
:100C10006C0611240C94B1060E948E0670F3959F09
:100C2000C1F3950F50E0551F629FF001729FBB27E3
:100C3000F00DB11D639FAA27F00DB11DAA1F649F7F
:100C40006627B00DA11D661F829F2227B00DA11D32
:100C5000621F739FB00DA11D621F839FA00D611DB8
:100C6000221F749F3327A00D611D231F849F600DD9
:100C7000211D822F762F6A2F11249F5750409AF002
:100C8000F1F088234AF0EE0FFF1FBB1F661F771F8E
:100C9000881F91505040A9F79E3F510580F00C9459
:100CA00066060C94B1065F3FE4F3983ED4F3869554
:100CB00077956795B795F795E7959F5FC1F7FE2BF9
:100CC000880F911D9695879597F9089597F99F67D5
:100CD00080E870E060E008959FEF80EC08950024C4
:100CE0000A941616170618060906089500240A9491
:100CF00012161306140605060895092E0394000C17
:100D000011F4882352F0BB0F40F4BF2B11F460FFA5
:100D100004C06F5F7F4F8F4F9F4F089557FD9058CE
:100D2000440F551F59F05F3F71F04795880F97FBAF
:100D3000991F61F09F3F79F0879508951216130669
:100D40001406551FF2CF4695F1DF08C01616170698
:100D50001806991FF1CF86957105610508940895CD
:100D6000E894BB2766277727CB0197F908952F9240
:100D70003F924F925F926F927F928F929F92AF922B
:100D8000BF92CF92DF92EF92FF920F931F93CF9378
:100D9000DF93CDB7DEB7CA1BDB0B0FB6F894DEBF0F
:100DA0000FBECDBF09942A88398848885F846E8435
:100DB0007D848C849B84AA84B984C884DF80EE807F
:100DC000FD800C811B81AA81B981CE0FD11D0FB688
:100DD000F894DEBF0FBECDBFED0108950E94F50669
:100DE0006894B1110C94B10608950E94960688F09B
:100DF0009F5798F0B92F9927B751B0F0E1F0660FDF
:100E0000771F881F991F1AF0BA95C9F714C0B1301F
:100E100091F00E94B006B1E008950C94B006672FDF
:100E2000782F8827B85F39F0B93FCCF3869577954E
:100E30006795B395D9F73EF4909580957095619537
:100E40007F4F8F4F9F4F0895EE0FFF1F0590F49136
:100E5000E02D09940F931F93CF93DF938230910578
:100E600010F482E090E0E091E201F091E30130E0E3
:100E700020E0B0E0A0E0309799F42115310509F4A5
:100E80004AC0281B390B24303105D8F58A819B8153
:100E90006115710589F1FB0193838283FE0111C005
:100EA000408151810281138148175907E0F04817AA
:100EB000590799F4109761F012960C9312971396B4
:100EC0001C933296CF01DF91CF911F910F9108951E
:100ED0000093E2011093E301F4CF2115310551F0A5
:100EE0004217530738F0A901DB019A01BD01DF0168
:100EF000F801C1CFEF01F9CF9093E3018093E201B4
:100F0000CDCFFE01E20FF31F81939193225031095F
:100F100039832883D7CF2091E0013091E101232B41
:100F200041F420910201309103013093E1012093BB
:100F3000E00120910001309101012115310541F4BA
:100F40002DB73EB74091040150910501241B350B8C
:100F5000E091E001F091E101E217F307A0F42E1B0C
:100F60003F0B2817390778F0AC014E5F5F4F24170D
:100F7000350748F04E0F5F1F5093E1014093E001A9
:100F8000819391939FCFF0E0E0E09CCFCF93DF93EC
:100F90000097E9F0FC01329713821282A091E201DE
:100FA000B091E301ED0130E020E01097A1F4208141
:100FB0003181820F931F2091E0013091E1012817C8
:100FC000390709F061C0F093E101E093E001DF919E
:100FD000CF910895EA01CE17DF07E8F54A815B81DA
:100FE0009E0141155105B1F7E901FB83EA8349915F
:100FF0005991C40FD51FEC17FD0761F480819181D1
:101000000296840F951FE9019983888382819381D9
:101010009B838A83F0E0E0E012968D919C91139778
:101020000097B9F52D913C911197CD010296820F51
:10103000931F2091E0013091E1012817390739F61B
:10104000309751F51092E3011092E201B093E10163
:10105000A093E001BCCFD383C28340815181840F30
:10106000951FC817D90761F44E5F5F4F888199813A
:10107000480F591F518340838A819B8193838283C8
:101080002115310509F0B0CFF093E301E093E201BF
:101090009ECFFD01DC01C0CF13821282D7CFB0E01A
:1010A000A0E0E5E5F8E00C94B9068C01009751F456
:1010B000CB010E942A078C01C801CDB7DEB7E0E161
:1010C0000C94D506FC01E60FF71F9C012250310954
:1010D000E217F30708F49DC0D901CD91DC91119777
:1010E000C617D70798F0C530D10530F3CE01049765
:1010F0008617970708F3C61BD70B2297C193D19386
:101100006D937C93CF010E94C607D6CF5B01AC1ACA
:10111000BD0A4C018C0E9D1EA091E201B091E3012D
:10112000512C412CF12CE12C109731F58091E001EC
:101130009091E1018815990509F05CC046165706A3
:1011400008F058C08091000190910101009741F48E
:101150008DB79EB74091040150910501841B950BFA
:10116000E817F90708F055C0F093E101E093E001BA
:10117000F90171836083A0CF8D919C911197129694
:101180006C90129713967C901397A815B90559F592
:101190006C0142E0C40ED11CCA14DB0420F1AC0186
:1011A0004A195B09DA011296159780F06282738200
:1011B00051834083D9016D937C93E114F10471F064
:1011C000D7011396FC93EE93129776CF22968C0F4D
:1011D0009D1FF90191838083F301EFCFF093E30129
:1011E000E093E20169CF4816590608F42C017D010D
:1011F000D3019ACFCB010E942A077C01009749F0C6
:10120000AE01B8010E940C09C8010E94C6078701FF
:1012100053CF10E000E050CFFB01DC0102C0019091
:101220000D9241505040D8F70895FB01DC01019028
:101230000D920020E1F7089510E0C2E6D0E004C06E
:10124000FE010E9424072196C336D107C9F7F894FE
:02125000FFCFCE
:101252000000E4018000000000007501D5000201D9
:10126200C2013301110125010D0A0053454E534FAE
:10127200523A200064697374616E63653D007C00BC
:00000001FF
