:100000000C9462000C948A000C948A000C948A0070
:100010000C948A000C948A000C948A000C948A0038
:100020000C948A000C948A000C948A000C948A0028
:100030000C948A000C948A000C948A000C948A0018
:100040000C9488030C948A000C9456030C9430038F
:100050000C948A000C948A000C948A000C948A00F8
:100060000C948A000C948A000000000024002700F1
:100070002A000000000023002600290000000000E4
:10008000250028002B0004040404040404040202D4
:100090000202020203030303030301020408102007
:1000A0004080010204081020010204081020000012
:1000B0000008000201000003040700000000000027
:1000C0000000550511241FBECFEFD8E0DEBFCDBF25
:1000D00011E0A0E0B1E0EAEBFDE002C005900D9276
:1000E000A435B107D9F721E0A4E5B1E001C01D9224
:1000F000AA3FB207E1F710E0C2E6D0E004C02197C2
:10010000FE010E94D506C136D107C9F70E94170427
:100110000C94DB060C940000AF92BF92CF92DF925A
:10012000EF92FF920F931F93CF93DF936C017B01AC
:100130008B01040F151FEB015E01AE18BF08C0173D
:10014000D10759F06991D601ED91FC910190F081B0
:10015000E02DC6010995892B79F7C501DF91CF9173
:100160001F910F91FF90EF90DF90CF90BF90AF90D5
:100170000895FC01538D448D252F30E0842F90E0AD
:10018000821B930B541710F0CF9608950197089592
:10019000FC01918D828D981761F0A28DAE0FBF2F5B
:1001A000B11D5D968C91928D9F5F9F73928F90E0B1
:1001B00008958FEF9FEF0895FC01918D828D981720
:1001C00031F0828DE80FF11D858D90E008958FEF5D
:1001D0009FEF0895FC01918D228D892F90E0805C26
:1001E0009F4F821B91098F73992708958DE591E0A8
:1001F0000E94EA0021E0892B09F420E0822F089573
:1002000080E090E0892B29F00E94F60081110C9487
:1002100000000895FC01A48DA80FB92FB11DA35AA9
:10022000BF4F2C91848D90E001968F739927848F16
:10023000A689B7892C93A089B1898C918370806439
:100240008C93938D848D981306C00288F389E02DDA
:1002500080818F7D80830895EF92FF920F931F938B
:10026000CF93DF93EC0181E0888F9B8D8C8D981369
:100270001AC0E889F989808185FF15C09FB7F89475
:10028000EE89FF896083E889F989808183708064C1
:1002900080839FBF81E090E0DF91CF911F910F910C
:1002A000FF90EF900895F62E0B8D10E00F5F1F4F1B
:1002B0000F731127E02E8C8D8E110CC00FB607FC2A
:1002C000FACFE889F989808185FFF5CFCE010E94B8
:1002D0000A01F1CFEB8DEC0FFD2FF11DE35AFF4F1B
:1002E000F0829FB7F8940B8FEA89FB898081806246
:1002F000CFCFCF93DF93EC01888D8823B9F0AA8903
:10030000BB89E889F9898C9185FD03C0808186FDD0
:100310000DC00FB607FCF7CF8C9185FFF2CF80811F
:1003200085FFEDCFCE010E940A01E9CFDF91CF9189
:100330000895833081F028F4813099F08230A9F05B
:1003400008958730A9F08830C9F08430B1F48091E5
:1003500080008F7D03C0809180008F778093800024
:10036000089584B58F7784BD089584B58F7DFBCFC4
:100370008091B0008F778093B00008958091B00095
:100380008F7DF9CF1F93CF93DF93E5EBF0E094914E
:10039000E1EAF0E0D491EDE8F0E0C491CC23B9F0CB
:1003A000182F992319F0892F0E949901EC2FF0E062
:1003B000EE0FFF1FE458FF4FA591B4918FB7F8944B
:1003C000EC91111108C0D095DE23DC938FBFDF9133
:1003D000CF911F910895DE2BF8CFCF93DF93282F75
:1003E00030E0F901E255FF4F8491F901E656FF4FE5
:1003F000D491F901EA57FF4FC491CC23A1F08111A8
:100400000E949901EC2FF0E0EE0FFF1FEE58FF4F16
:10041000A591B491EC91ED2381E090E009F480E0A6
:10042000DF91CF91089580E090E0FACFCF93DF93F2
:1004300090E0FC01E656FF4F24918A579F4FFC0144
:1004400084918823D1F090E0880F991FFC01E8592E
:10045000FF4FA591B491FC01E458FF4FC591D49191
:1004600061110EC09FB7F8948C91E22FE0958E2316
:100470008C932881E223E8839FBFDF91CF91089579
:100480008FB7F894EC91E22BEC938FBFF6CF3FB788
:10049000F8948091590190915A01A0915B01B0911B
:1004A0005C0126B5A89B05C02F3F19F00196A11D40
:1004B000B11D3FBFBA2FA92F982F8827BC01CD01AE
:1004C000620F711D811D911D42E0660F771F881F0D
:1004D000991F4A95D1F708958F929F92AF92BF923C
:1004E000CF92DF92EF92FF924B015C010E94470294
:1004F0006B017C010E9447026C197D098E099F09DE
:10050000683E734081059105A8F321E0821A9108A5
:10051000A108B10888EEC80E83E0D81EE11CF11CCA
:1005200081149104A104B10429F7FF90EF90DF90AA
:10053000CF90BF90AF909F908F900895FC01019055
:100540000020E9F73197AF01481B590BBC018DE53D
:1005500091E00C948C008F929F92AF92BF92CF92B9
:10056000DF92EF92FF920F931F93CF93DF93CDB75C
:10057000DEB7A1970FB6F894DEBF0FBECDBF6C01FA
:10058000990FEE08FF08F7FE47C06DE28DE591E098
:100590000E942C018C0122273327A9012C193D0927
:1005A0004E095F0919A2CE0181967C019AE0892E3D
:1005B000912CA12CB12CCA01B901A50194010E9472
:1005C000B306605DF70162937F0121153105410596
:1005D000510589F790E080E0309719F0CF010E9433
:1005E0009E02080F191F82E191E00E949E02800F77
:1005F000911FA1960FB6F894DEBF0FBECDBFDF915D
:10060000CF911F910F91FF90EF90DF90CF90BF900F
:10061000AF909F908F900895A701960119A28E0127
:100620000F5D1F4F8AE0C82ED12CE12CF12CCA019E
:10063000B901A70196010E94B306605DF8016293BB
:100640008F01211531054105510589F7309729F0B2
:10065000CF010E949E028C01C6CF10E000E0C3CF04
:100660001F920F920FB60F9211242F933F934F9327
:100670005F936F937F938F939F93AF93BF93EF930A
:10068000FF938DE591E00E940A01FF91EF91BF91E8
:10069000AF919F918F917F916F915F914F913F911A
:1006A0002F910F900FBE0F901F9018951F920F92D1
:1006B0000FB60F9211242F938F939F93EF93FF9375
:1006C000E0916D01F0916E018081E0917301F091F4
:1006D000740182FD1BC09081809176018F5F8F73C2
:1006E00020917701821741F0E0917601F0E0E35A22
:1006F000FE4F958F80937601FF91EF919F918F919F
:100700002F910F900FBE0F901F9018958081F4CFFE
:100710001F920F920FB60F9211242F933F938F9336
:100720009F93AF93BF938091550190915601A091F3
:100730005701B09158013091540123E0230F2D3718
:1007400058F50196A11DB11D2093540180935501C8
:1007500090935601A0935701B0935801809159018D
:1007600090915A01A0915B01B0915C010196A11D8D
:10077000B11D8093590190935A01A0935B01B093EE
:100780005C01BF91AF919F918F913F912F910F90FD
:100790000FBE0F901F90189526E8230F0296A11DFB
:1007A000B11DD2CFCF92DF92EF92FF920F931F93A2
:1007B000E82FF92F05C0015011092109310961F114
:1007C000908196239417B9F305C0015011092109AE
:1007D000310911F1908196239413F7CFC12CD12CBC
:1007E000E12CF12C0AC08FEFC81AD80AE80AF80ADF
:1007F0000C151D052E053F0579F080818623841791
:1008000091F36C2D7D2D8E2D9F2D1F910F91FF90BB
:10081000EF90DF90CF90089560E070E080E090E08E
:100820001F910F91FF90EF90DF90CF9008957894F3
:1008300084B5826084BD84B5816084BD85B58260E5
:1008400085BD85B5816085BD80916E008160809396
:100850006E001092810080918100826080938100FF
:10086000809181008160809381008091800081600F
:10087000809380008091B10084608093B10080916A
:10088000B00081608093B00080917A008460809392
:100890007A0080917A00826080937A0080917A0059
:1008A000816080937A0080917A00806880937A00DA
:1008B0001092C10060E089E00E94160260E082E0D0
:1008C0000E94160261E087E00E94160260E086E066
:1008D0000E941602E0916D01F0916E0182E080832A
:1008E000E0916901F0916A011082E0916B01F09151
:1008F0006C018FEC808310927501E0917101F09191
:10090000720186E08083E0916F01F0917001808137
:1009100080618083E0916F01F09170018081886037
:100920008083E0916F01F091700180818068808305
:10093000E0916F01F091700180818F7D8083C3E031
:10094000D0E093E2E92EF12C20EAC22E20E0D22E54
:100950003CE8A32E30E0B32E40E0842E40E0942EFD
:1009600089E00E94ED013C0181E06816710409F004
:1009700083C062E370E080E090E00E946C0285E159
:1009800091E00E949E0281E090E00E94AB0282E032
:100990000E94ED01892B09F47BC062E370E080E0E6
:1009A00090E00E946C0287E291E00E949E0281E04A
:1009B00090E00E94AB0280E00E94C201CE0101974C
:1009C000F1F781E00E94C201C7010197F1F780E0D1
:1009D0000E94C201F6016491F5018491E82FF0E0D4
:1009E000EE0FFF1FEE58FF4F8591949100E412E443
:1009F0002FE030E0462F0E94D2032B013C0141142E
:100A000051046104710439F0FFEF4F1A5F0A6F0A55
:100A10007F0A8FE0782262E370E080E090E00E943D
:100A20006C028DE391E00E949E02C301B2010E941C
:100A3000BA0526E933E44BE05DE30E941E0620E0A0
:100A400030E040E05FE30E941E060E948205CB0179
:100A50000E94AB0264E670E080E090E00E946C02CD
:100A60008114910409F47CCF0E94F600882309F4D4
:100A700077CF0E94000074CF62E370E080E090E0E6
:100A80000E946C0285E191E00E949E02C3017DCF2D
:100A900062E370E080E090E00E946C0287E291E007
:100AA0000E949E0290E080E084CFEDE5F1E01382A9
:100AB000128288EE93E0A0E0B0E084839583A68361
:100AC000B78384E091E09183808385EC90E0958703
:100AD000848784EC90E09787868780EC90E0918B08
:100AE000808B81EC90E0938B828B82EC90E0958BF5
:100AF000848B86EC90E0978B868B118E128E138EF2
:100B0000148E08950E9489056894B1110C941806FA
:100B100008950E94FD0588F09F5798F0B92F9927F6
:100B2000B751B0F0E1F0660F771F881F991F1AF0D8
:100B3000BA95C9F714C0B13091F00E941706B1E020
:100B400008950C941706672F782F8827B85F39F01F
:100B5000B93FCCF3869577956795B395D9F73EF471
:100B600090958095709561957F4F8F4F9F4F089519
:100B7000E89409C097FB3EF4909580957095619537
:100B80007F4F8F4F9F4F9923A9F0F92F96E9BB27ED
:100B90009395F695879577956795B795F111F8CF69
:100BA000FAF4BB0F11F460FF1BC06F5F7F4F8F4FD4
:100BB0009F4F16C0882311F096E911C0772321F0CA
:100BC0009EE8872F762F05C0662371F096E8862F62
:100BD00070E060E02AF09A95660F771F881FDAF7B9
:100BE000880F9695879597F9089557FD9058440F6B
:100BF000551F59F05F3F71F04795880F97FB991F7C
:100C000061F09F3F79F08795089512161306140638
:100C1000551FF2CF4695F1DF08C0161617061806C5
:100C2000991FF1CF86957105610508940895E894A0
:100C3000BB2766277727CB0197F908950E943106D5
:100C40000C94A2060E94940638F00E949B0620F0A5
:100C5000952311F00C948B060C94910611240C949E
:100C600018060E94F50570F3959FC1F3950F50E0AB
:100C7000551F629FF001729FBB27F00DB11D639F4E
:100C8000AA27F00DB11DAA1F649F6627B00DA11DF4
:100C9000661F829F2227B00DA11D621F739FB00D9A
:100CA000A11D621F839FA00D611D221F749F33270A
:100CB000A00D611D231F849F600D211D822F762FA3
:100CC0006A2F11249F5750409AF0F1F088234AF080
:100CD000EE0FFF1FBB1F661F771F881F91505040EC
:100CE000A9F79E3F510580F00C948B060C941806D2
:100CF0005F3FE4F3983ED4F3869577956795B79573
:100D0000F795E7959F5FC1F7FE2B880F911D96958C
:100D1000879597F9089597F99F6780E870E060E0FC
:100D200008959FEF80EC089500240A941616170684
:100D300018060906089500240A94121613061406CC
:100D400005060895092E0394000C11F4882352F02F
:100D5000BB0F40F4BF2B11F460FF04C06F5F7F4FE7
:100D60008F4F9F4F0895A1E21A2EAA1BBB1BFD01B6
:100D70000DC0AA1FBB1FEE1FFF1FA217B307E4077A
:100D8000F50720F0A21BB30BE40BF50B661F771FD2
:100D9000881F991F1A9469F76095709580959095B2
:100DA0009B01AC01BD01CF010895EE0FFF1F05901F
:0A0DB000F491E02D0994F894FFCFB0
:100DBA00000000002C018C00B9007901EA00C8008B
:100DCA00DC000D0A004C4F473A20646174615F628F
:100DDA007574746F6E5F0053454E534F523A2064D8
:100DEA006174615F747261636B65725F0053454E33
:100DFA00534F523A20646174615F64697374616E1F
:040E0A0063655F00BD
:00000001FF
