:100000000C9463000C948B000C948B000C948B006C
:100010000C948B000C948B000C948B000C948B0034
:100020000C948B000C948B000C948B000C948B0024
:100030000C948B000C948B000C948B000C948B0014
:100040000C942B030C948B000C94F9020C94D302A7
:100050000C948B000C948B000C948B000C948B00F4
:100060000C948B000C948B000000000024002700EF
:100070002A000000000023002600290000000000E4
:10008000250028002B0004040404040404040202D4
:100090000202020203030303030301020408102007
:1000A0004080010204081020010204081020000012
:1000B0000008000201000003040700000000000027
:1000C0000000BA03DF0511241FBECFEFD8E0DEBF6A
:1000D000CDBF21E0A8E3B1E001C01D92A03FB2076F
:1000E000E1F711E0A0E0B1E0E4E1F3E102C0059046
:1000F0000D92A833B107D9F710E0C2E6D0E004C0F2
:100100002197FE010E948507C136D107C9F70E94D9
:100110002E040C947D090C940000AF92BF92CF92F4
:10012000DF92EF92FF920F931F93CF93DF936C01B7
:100130007B018B01040F151FEB015E01AE18BF0898
:10014000C017D10759F06991D601ED91FC9101904A
:10015000F081E02DC6010995892B79F7C501DF9162
:10016000CF911F910F91FF90EF90DF90CF90BF90B4
:10017000AF900895FC01538D448D252F30E0842FDE
:1001800090E0821B930B541710F0CF9608950197BF
:100190000895FC01918D828D981761F0A28DAE0FAC
:1001A000BF2FB11D5D968C91928D9F5F9F73928F33
:1001B00090E008958FEF9FEF0895FC01918D828D5F
:1001C000981731F0828DE80FF11D858D90E008952C
:1001D0008FEF9FEF0895FC01918D228D892F90E084
:1001E000805C9F4F821B91098F739927089589E442
:1001F00091E00E94EB0021E0892B09F420E0822F9E
:10020000089580E090E0892B29F00E94F700811189
:100210000C9400000895FC01A48DA80FB92FB11D06
:10022000A35ABF4F2C91848D90E001968F7399272C
:10023000848FA689B7892C93A089B1898C9183700A
:1002400080648C93938D848D981306C00288F38903
:10025000E02D80818F7D80830895EF92FF920F9330
:100260001F93CF93DF93EC0181E0888F9B8D8C8D62
:1002700098131AC0E889F989808185FF15C09FB756
:10028000F894EE89FF896083E889F9898081837019
:10029000806480839FBF81E090E0DF91CF911F91C8
:1002A0000F91FF90EF900895F62E0B8D10E00F5FE9
:1002B0001F4F0F731127E02E8C8D8E110CC00FB6BF
:1002C00007FCFACFE889F989808185FFF5CFCE0157
:1002D0000E940B01F1CFEB8DEC0FFD2FF11DE35AC6
:1002E000FF4FF0829FB7F8940B8FEA89FB898081DA
:1002F0008062CFCFCF93DF93EC01888D8823B9F054
:10030000AA89BB89E889F9898C9185FD03C0808120
:1003100086FD0DC00FB607FCF7CF8C9185FFF2CF9D
:10032000808185FFEDCFCE010E940B01E9CFDF91E7
:10033000CF910895833081F028F4813099F0823094
:10034000A9F008958730A9F08830C9F08430B1F45D
:10035000809180008F7D03C0809180008F77809393
:100360008000089584B58F7784BD089584B58F7D0E
:10037000FBCF8091B0008F778093B000089580917B
:10038000B0008F7DF9CF1F93CF93DF93E5EBF0E0C3
:100390009491E1EAF0E0D491EDE8F0E0C491CC234F
:1003A000B9F0182F992319F0892F0E949A01EC2F88
:1003B000F0E0EE0FFF1FE458FF4FA591B4918FB707
:1003C000F894EC91111108C0D095DE23DC938FBF17
:1003D000DF91CF911F910895DE2BF8CFCF93DF935C
:1003E00090E0FC01E656FF4F24918A579F4FFC0195
:1003F00084918823D1F090E0880F991FFC01E8597F
:10040000FF4FA591B491FC01E458FF4FC591D491E1
:1004100061110EC09FB7F8948C91E22FE0958E2366
:100420008C932881E223E8839FBFDF91CF910895C9
:100430008FB7F894EC91E22BEC938FBFF6CF3FB7D8
:10044000F89480913D0190913E01A0913F01B091BF
:10045000400126B5A89B05C02F3F19F00196A11DAC
:10046000B11D3FBFBA2FA92F982F8827BC01CD01FE
:10047000620F711D811D911D42E0660F771F881F5D
:10048000991F4A95D1F708958F929F92AF92BF928C
:10049000CF92DF92EF92FF924B015C010E941F020C
:1004A0006B017C010E941F026C197D098E099F0956
:1004B000683E734081059105A8F321E0821A9108F6
:1004C000A108B10888EEC80E83E0D81EE11CF11C1B
:1004D00081149104A104B10429F7FF90EF90DF90FB
:1004E000CF90BF90AF909F908F900895CF93DF9360
:1004F000EC018091E6019091E701009759F020917D
:10050000E8013091E9012C173D0720F081E0DF91EF
:10051000CF910895BE016F5F7F4F0E94B008009792
:1005200089F09093E7018093E601D093E901C093AD
:10053000E8012091EA013091EB01232B39F7FC010E
:100540001082E4CF80E0E3CF0F931F93CF93DF932C
:10055000FC0101900020E9F73197E81BF90BE9F065
:100560008C01C091EA01D091EB01CE0FDF1FCE01CB
:100570000E947602882391F02091E6013091E701F4
:100580008091EA019091EB01B801820F931F0E94C4
:100590007609D093EB01C093EA0181E0DF91CF911E
:1005A0001F910F9108951F920F920FB60F92112471
:1005B0002F933F934F935F936F937F938F939F936B
:1005C000AF93BF93EF93FF9389E491E00E940B01F7
:1005D000FF91EF91BF91AF919F918F917F916F911B
:1005E0005F914F913F912F910F900FBE0F901F90F1
:1005F00018951F920F920FB60F9211242F938F937D
:100600009F93EF93FF93E0915901F0915A018081FC
:10061000E0915F01F091600182FD1BC090818091AB
:1006200062018F5F8F7320916301821741F0E09127
:100630006201F0E0E75BFE4F958F80936201FF91CE
:10064000EF919F918F912F910F900FBE0F901F9060
:1006500018958081F4CF1F920F920FB60F9211243C
:100660002F933F938F939F93AF93BF9380913901C3
:1006700090913A01A0913B01B0913C013091380139
:1006800023E0230F2D3758F50196A11DB11D2093AE
:1006900038018093390190933A01A0933B01B093C4
:1006A0003C0180913D0190913E01A0913F01B091AC
:1006B00040010196A11DB11D80933D0190933E0123
:1006C000A0933F01B0934001BF91AF919F918F9153
:1006D0003F912F910F900FBE0F901F90189526E815
:1006E000230F0296A11DB11DD2CFCF92DF92EF92C0
:1006F000FF920F931F93E82FF92F05C001501109A6
:100700002109310961F1908196239417B9F305C04D
:10071000015011092109310911F190819623941397
:10072000F7CFC12CD12CE12CF12C0AC08FEFC81AC5
:10073000D80AE80AF80A0C151D052E053F0579F0C0
:1007400080818623841791F36C2D7D2D8E2D9F2D16
:100750001F910F91FF90EF90DF90CF90089560E090
:1007600070E080E090E01F910F91FF90EF90DF909C
:10077000CF90089510924C0110924B0188EE93E0B7
:10078000A0E0B0E080934D0190934E01A0934F0103
:10079000B09350018AE091E090934A01809349011F
:1007A00085EC90E0909356018093550184EC90E0A5
:1007B000909358018093570180EC90E090935A01F8
:1007C0008093590181EC90E090935C0180935B01F0
:1007D00082EC90E090935E0180935D0186EC90E066
:1007E0009093600180935F01109262011092630107
:1007F00010926401109265011092E7011092E601D7
:100800001092E9011092E8011092EB011092EA01B6
:1008100090E080E00E9476022091E6013091E701AD
:10082000811113C02115310519F0C9010E94270853
:100830001092E7011092E6011092EB011092EA018A
:100840001092E9011092E80108951092EB011092C4
:10085000EA0167E371E0C9010C947609CF93DF9355
:10086000CDB7DEB728970FB6F894DEBF0FBECDBF69
:10087000789484B5826084BD84B5816084BD85B57B
:10088000826085BD85B5816085BD80916E00816087
:1008900080936E001092810080918100826080932D
:1008A000810080918100816080938100809180002F
:1008B0008160809380008091B10084608093B1005A
:1008C0008091B00081608093B00080917A00846054
:1008D00080937A0080917A00826080937A00809180
:1008E0007A00816080937A0080917A00806880939A
:1008F0007A001092C10060E08DE00E94EE0161E09C
:1009000087E00E94EE0160E086E00E94EE01E09147
:100910005901F0915A0182E08083E0915501F091F4
:1009200056011082E0915701F09158018FEC8083BD
:1009300010926101E0915D01F0915E0186E080839B
:10094000E0915B01F0915C01808180618083E091A6
:100950005B01F0915C01808188608083E0915B01A4
:10096000F0915C01808180688083E0915B01F0916F
:100970005C0180818F7D808333E0C32ED12C43E2E4
:10098000A42EB12C5CE8252E50E0352ECE01019628
:100990007C0120E0822E20E0922EEBEBF0E08491AF
:1009A000E7EAF0E00491E3E9F0E01491112309F49F
:1009B000E1C081110E949A01E12FF0E0EE0FFF1FCC
:1009C000EE58FF4FA591B4918C91082391E080E0FF
:1009D00009F490E0909347018093480180E00E94E1
:1009E000C301C6010197F1F781E00E94C301C5016F
:1009F0000197F1F780E00E94C301E0EAF0E0649122
:100A0000F1018491E82FF0E0EE0FFF1FEE58FF4F49
:100A10008591949100E412E42FE030E0462F0E948B
:100A20007503611571058105910529F06F5F7F4F91
:100A30008F4F9F4F9F700E941F0626E933E44BE0C3
:100A40005DE30E945A0620E030E040E05FE30E9450
:100A50005A060E944F072B018B0170934601609349
:100A6000450164E170E080E090E00E94440288E08B
:100A700090E00E9476022091E6013091E701811119
:100A80007CC02115310519F0C9010E942708109278
:100A9000E7011092E6011092EB011092EA01109228
:100AA000E9011092E801809147019091480120915D
:100AB0004301309144018217930709F46AC090936F
:100AC00044018093430181E291E00E94A40281E00D
:100AD00020914101309142010217130709F45BC0D4
:100AE00050924201409241018BE291E00E94A402A7
:100AF0004AE0B701C2010E94E805F7010190002019
:100B0000E9F73197EE19FF09E1F00091EA01109140
:100B1000EB010E0F1F1FC8010E947602882389F087
:100B20002091E6013091E7018091EA019091EB017B
:100B3000B701820F931F0E9476091093EB01009377
:100B4000EA0189E291E00E94A4024091EA015091F9
:100B5000EB016091E6017091E70189E491E00E9468
:100B60008D0042E050E065E371E089E491E00E948D
:100B70008D0013C090E080E02DCF88E090E090934E
:100B8000EB018093EA0168E171E0C9010E947609F6
:100B90008ACF80E09DCF8111D8CF64E670E080E0FD
:100BA00090E00E9444028114910409F4F6CE0E9460
:100BB000F700882309F4F1CE0E940000EACE80916C
:100BC000E6019091E701009711F00C942708089531
:100BD000BB274A3031F4992322F4BDE290958195E8
:100BE0009F4F0C94F405BB27FB015527AA27880FBC
:100BF000991FAA1FA41710F0A41B83955051B9F791
:100C0000A05DAA3308F0A95DA193009779F7B1110F
:100C1000B1931192CB010C940D06DC01FC01672FFE
:100C200071917723E1F7329704C07C916D937083C3
:100C30006291AE17BF07C8F30895E89409C097FB07
:100C40003EF490958095709561957F4F8F4F9F4FA3
:100C50009923A9F0F92F96E9BB279395F6958795E7
:100C600077956795B795F111F8CFFAF4BB0F11F4AA
:100C700060FF1BC06F5F7F4F8F4F9F4F16C0882351
:100C800011F096E911C0772321F09EE8872F762F87
:100C900005C0662371F096E8862F70E060E02AF0C8
:100CA0009A95660F771F881FDAF7880F96958795B4
:100CB00097F908950E946D060C94DE060E94D006F6
:100CC00038F00E94D70620F0952311F00C94C70647
:100CD0000C94CD0611240C9412070E94EF0670F3B9
:100CE000959FC1F3950F50E0551F629FF001729FD1
:100CF000BB27F00DB11D639FAA27F00DB11DAA1FE0
:100D0000649F6627B00DA11D661F829F2227B00D2C
:100D1000A11D621F739FB00DA11D621F839FA00DB7
:100D2000611D221F749F3327A00D611D231F849F07
:100D3000600D211D822F762F6A2F11249F5750405E
:100D40009AF0F1F088234AF0EE0FFF1FBB1F661FD9
:100D5000771F881F91505040A9F79E3F510580F0A2
:100D60000C94C7060C9412075F3FE4F3983ED4F34B
:100D7000869577956795B795F795E7959F5FC1F746
:100D8000FE2B880F911D9695879597F9089597F9F1
:100D90009F6780E870E060E008959FEF80EC089521
:100DA00000240A941616170618060906089500244A
:100DB0000A9412161306140605060895092E0394C4
:100DC000000C11F4882352F0BB0F40F4BF2B11F438
:100DD00060FF04C06F5F7F4F8F4F9F4F089557FD97
:100DE0009058440F551F59F05F3F71F04795880F99
:100DF00097FB991F61F09F3F79F087950895121630
:100E000013061406551FF2CF4695F1DF08C01616DB
:100E100017061806991FF1CF86957105610508948C
:100E20000895E894BB2766277727CB0197F90895A3
:100E30002F923F924F925F926F927F928F929F92EA
:100E4000AF92BF92CF92DF92EF92FF920F931F93D8
:100E5000CF93DF93CDB7DEB7CA1BDB0B0FB6F89489
:100E6000DEBF0FBECDBF09942A88398848885F84C9
:100E70006E847D848C849B84AA84B984C884DF803A
:100E8000EE80FD800C811B81AA81B981CE0FD11D1E
:100E90000FB6F894DEBF0FBECDBFED0108950E94DE
:100EA00056076894B1110C94120708950E94F70632
:100EB00088F09F5798F0B92F9927B751B0F0E1F01B
:100EC000660F771F881F991F1AF0BA95C9F714C0CB
:100ED000B13091F00E941107B1E008950C94110710
:100EE000672F782F8827B85F39F0B93FCCF3869504
:100EF00077956795B395D9F73EF490958095709561
:100F000061957F4F8F4F9F4F0895EE0FFF1F059004
:100F1000F491E02D09940F931F93CF93DF938230C8
:100F2000910510F482E090E0E091EE01F091EF0184
:100F300030E020E0B0E0A0E0309799F421153105D1
:100F400009F44AC0281B390B24303105D8F58A81B1
:100F50009B816115710589F1FB0193838283FE01F9
:100F600011C0408151810281138148175907E0F077
:100F70004817590799F4109761F012960C9312973D
:100F800013961C933296CF01DF91CF911F910F9151
:100F900008950093EE011093EF01F4CF2115310570
:100FA00051F04217530738F0A901DB019A01BD0146
:100FB000DF01F801C1CFEF01F9CF9093EF018093EA
:100FC000EE01CDCFFE01E20FF31F819391932250EA
:100FD000310939832883D7CF2091EC013091ED017D
:100FE000232B41F420910201309103013093ED0154
:100FF0002093EC0120910001309101012115310570
:1010000041F42DB73EB74091040150910501241BD6
:10101000350BE091EC01F091ED01E217F307A0F43C
:101020002E1B3F0B2817390778F0AC014E5F5F4F3E
:101030002417350748F04E0F5F1F5093ED01409382
:10104000EC01819391939FCFF0E0E0E09CCFCF93B0
:10105000DF930097E9F0FC01329713821282A0918E
:10106000EE01B091EF01ED0130E020E01097A1F426
:1010700020813181820F931F2091EC013091ED018D
:101080002817390709F061C0F093ED01E093EC01F6
:10109000DF91CF910895EA01CE17DF07E8F54A8185
:1010A0005B819E0141155105B1F7E901FB83EA839C
:1010B00049915991C40FD51FEC17FD0761F4808148
:1010C00091810296840F951FE9019983888382811B
:1010D00093819B838A83F0E0E0E012968D919C914E
:1010E00013970097B9F52D913C911197CD01029678
:1010F000820F931F2091EC013091ED0128173907E1
:1011000039F6309751F51092EF011092EE01B0933D
:10111000ED01A093EC01BCCFD383C2834081518108
:10112000840F951FC817D90761F44E5F5F4F888100
:101130009981480F591F518340838A819B819383F2
:1011400082832115310509F0B0CFF093EF01E093D0
:10115000EE019ECFFD01DC01C0CF13821282D7CFFA
:10116000B0E0A0E0E6EBF8E00C941A078C010097E1
:1011700051F4CB010E948B078C01C801CDB7DEB7BB
:10118000E0E10C943607FC01E60FF71F9C012250AA
:101190003109E217F30708F49DC0D901CD91DC9124
:1011A0001197C617D70798F0C530D10530F3CE0197
:1011B00004978617970708F3C61BD70B2297C1938E
:1011C000D1936D937C93CF010E942708D6CF5B010A
:1011D000AC1ABD0A4C018C0E9D1EA091EE01B0917F
:1011E000EF01512C412CF12CE12C109731F580911D
:1011F000EC019091ED018815990509F05CC0461647
:10120000570608F058C080910001909101010097A5
:1012100041F48DB79EB74091040150910501841BA4
:10122000950BE817F90708F055C0F093ED01E0932E
:10123000EC01F90171836083A0CF8D919C9111978E
:1012400012966C90129713967C901397A815B90577
:1012500059F56C0142E0C40ED11CCA14DB0420F124
:10126000AC014A195B09DA011296159780F0628287
:10127000738251834083D9016D937C93E114F1040F
:1012800071F0D7011396FC93EE93129776CF2296C6
:101290008C0F9D1FF90191838083F301EFCFF093B1
:1012A000EF01E093EE0169CF4816590608F42C01CE
:1012B0007D01D3019ACFCB010E948B077C0100975F
:1012C00049F0AE01B8010E946D09C8010E942708CB
:1012D000870153CF10E000E050CFFB01DC0102C0DA
:1012E00001900D9241505040D8F70895FB01DC0168
:1012F00001900D920020E1F7089510E0C2E6D0E0E1
:1013000004C0FE010E9485072196C336D107C9F7A4
:04131000F894FFCF7F
:101314000000F0018000000000002D018D00BA00E3
:101324007A01EB00C900DD0053454E534F523A2079
:1013340000627574746F6E3D317C0064697374610E
:081344006E63653D000D0A0017
:00000001FF
