:100000000C9463000C948B000C948B000C948B006C
:100010000C948B000C948B000C948B000C948B0034
:100020000C948B000C948B000C948B000C948B0024
:100030000C948B000C948B000C948B000C948B0014
:100040000C941E030C948B000C94EC020C94C602CE
:100050000C948B000C948B000C948B000C948B00F4
:100060000C948B000C948B000000000024002700EF
:100070002A0000000000250028002B0000000008D6
:10008000000201000003040700000000000000005F
:1000900000000000230026002900040404040404D6
:1000A0000404020202020202030303030303010227
:1000B00004081020408001020408102001020408F6
:1000C0001020AD03B00511241FBECFEFD8E0DEBF76
:1000D000CDBF21E0A0E3B1E001C01D92A43EB20774
:1000E000E1F711E0A0E0B1E0E6EBF2E102C005903B
:1000F0000D92A033B107D9F710E0C2E6D0E004C0FA
:100100002197FE010E945607C136D107C9F70E9408
:1001100021040C944E090C940000AF92BF92CF9230
:10012000DF92EF92FF920F931F93CF93DF936C01B7
:100130007B018B01040F151FEB015E01AE18BF0898
:10014000C017D10759F06991D601ED91FC9101904A
:10015000F081E02DC6010995892B79F7C501DF9162
:10016000CF911F910F91FF90EF90DF90CF90BF90B4
:10017000AF900895FC01538D448D252F30E0842FDE
:1001800090E0821B930B541710F0CF9608950197BF
:100190000895FC01918D828D981761F0A28DAE0FAC
:1001A000BF2FB11D5D968C91928D9F5F9F73928F33
:1001B00090E008958FEF9FEF0895FC01918D828D5F
:1001C000981731F0828DE80FF11D858D90E008952C
:1001D0008FEF9FEF0895FC01918D228D892F90E084
:1001E000805C9F4F821B91098F73992708958DE33F
:1001F00091E00E94EB0021E0892B09F420E0822F9E
:10020000089580E090E0892B29F00E94F700811189
:100210000C9400000895FC01A48DA80FB92FB11D06
:10022000A35ABF4F2C91848D90E001968F7399272C
:10023000848FA689B7892C93A089B1898C9183700A
:1002400080648C93938D848D981306C00288F38903
:10025000E02D80818F7D80830895EF92FF920F9330
:100260001F93CF93DF93EC0181E0888F9B8D8C8D62
:1002700098131AC0E889F989808185FF15C09FB756
:10028000F894EE89FF896083E889F9898081837019
:10029000806480839FBF81E090E0DF91CF911F91C8
:1002A0000F91FF90EF900895F62E0B8D10E00F5FE9
:1002B0001F4F0F731127E02E8C8D8E110CC00FB6BF
:1002C00007FCFACFE889F989808185FFF5CFCE0157
:1002D0000E940B01F1CFEB8DEC0FFD2FF11DE35AC6
:1002E000FF4FF0829FB7F8940B8FEA89FB898081DA
:1002F0008062CFCFCF93DF93EC01888D8823B9F054
:10030000AA89BB89E889F9898C9185FD03C0808120
:1003100086FD0DC00FB607FCF7CF8C9185FFF2CF9D
:10032000808185FFEDCFCE010E940B01E9CFDF91E7
:10033000CF91089590E0FC01E458FF4F2491FC0117
:10034000E255FF4F3491FC01E656FF4FE491EE2356
:10035000C9F0222339F0233001F1A8F4213019F13A
:10036000223029F1F0E0EE0FFF1FEE58FF4FA5916C
:10037000B4918FB7F894EC91611126C030953E236B
:100380003C938FBF08952730A9F02830C9F024305E
:1003900049F7809180008F7D03C0809180008F7726
:1003A00080938000DFCF84B58F7784BDDBCF84B5A9
:1003B0008F7DFBCF8091B0008F778093B000D2CF3C
:1003C0008091B0008F7DF9CF3E2BDACFCF93DF93B2
:1003D00090E0FC01E255FF4F249186569F4FFC01AF
:1003E00084918823D1F090E0880F991FFC01E8598F
:1003F000FF4FA591B491FC01EE58FF4FC591D491E8
:1004000061110EC09FB7F8948C91E22FE0958E2376
:100410008C932881E223E8839FBFDF91CF910895D9
:100420008FB7F894EC91E22BEC938FBFF6CF3FB7E8
:10043000F8948091350190913601A0913701B091E7
:10044000380126B5A89B05C02F3F19F00196A11DC4
:10045000B11D3FBFBA2FA92F982F8827BC01CD010E
:10046000620F711D811D911D42E0660F771F881F6D
:10047000991F4A95D1F708958F929F92AF92BF929C
:10048000CF92DF92EF92FF924B015C010E94170224
:100490006B017C010E9417026C197D098E099F096E
:1004A000683E734081059105A8F321E0821A910806
:1004B000A108B10888EEC80E83E0D81EE11CF11C2B
:1004C00081149104A104B10429F7FF90EF90DF900B
:1004D000CF90BF90AF909F908F900895CF93DF9370
:1004E000EC018091DA019091DB01009759F02091A5
:1004F000DC013091DD012C173D0720F081E0DF9118
:10050000CF910895BE016F5F7F4F0E9481080097D1
:1005100089F09093DB018093DA01D093DD01C093E1
:10052000DC012091DE013091DF01232B39F7FC0142
:100530001082E4CF80E0E3CF0F931F93CF93DF933C
:1005400061157105E9F08C01C091DE01D091DF01E8
:10055000C60FD71FCE010E946E02882391F0209112
:10056000DA013091DB018091DE019091DF01B80169
:10057000820F931F0E944709D093DF01C093DE01D1
:1005800081E0DF91CF911F910F9108951F920F92FB
:100590000FB60F9211242F933F934F935F936F9356
:1005A0007F938F939F93AF93BF93EF93FF938DE3CD
:1005B00091E00E940B01FF91EF91BF91AF919F914C
:1005C0008F917F916F915F914F913F912F910F90FC
:1005D0000FBE0F901F9018951F920F920FB60F929B
:1005E00011242F938F939F93EF93FF93E0914D01ED
:1005F000F0914E018081E0915301F091540182FD10
:100600001BC09081809156018F5F8F73209157019D
:10061000821741F0E0915601F0E0E35CFE4F958FC8
:1006200080935601FF91EF919F918F912F910F90A1
:100630000FBE0F901F9018958081F4CF1F920F92DC
:100640000FB60F9211242F933F938F939F93AF93E5
:10065000BF938091310190913201A0913301B0910B
:1006600034013091300123E0230F2D3758F50196E6
:10067000A11DB11D2093300180933101909332016F
:10068000A0933301B09334018091350190913601EC
:10069000A0913701B09138010196A11DB11D809341
:1006A000350190933601A0933701B0933801BF9183
:1006B000AF919F918F913F912F910F900FBE0F900F
:1006C0001F90189526E8230F0296A11DB11DD2CFC9
:1006D000CF92DF92EF92FF920F931F93E82FF92FA3
:1006E00005C0015011092109310961F1908196235A
:1006F0009417B9F305C0015011092109310911F10D
:10070000908196239413F7CFC12CD12CE12CF12C9E
:100710000AC08FEFC81AD80AE80AF80A0C151D0596
:100720002E053F0579F080818623841791F36C2D87
:100730007D2D8E2D9F2D1F910F91FF90EF90DF90BB
:10074000CF90089560E070E080E090E01F910F91FD
:10075000FF90EF90DF90CF9008951092400110929B
:100760003F0188EE93E0A0E0B0E0809341019093D8
:100770004201A0934301B09344018AE091E0909339
:100780003E0180933D0185EC90E090934A01809377
:10079000490184EC90E090934C0180934B0180ECF4
:1007A00090E090934E0180934D0181EC90E0909306
:1007B000500180934F0182EC90E09093520180931E
:1007C000510186EC90E09093540180935301109274
:1007D000560110925701109258011092590110922F
:1007E000DB011092DA011092DD011092DC0110920F
:1007F000DF011092DE0190E080E00E946E02209105
:10080000DA013091DB01811113C02115310519F096
:10081000C9010E94F8071092DB011092DA011092D0
:10082000DF011092DE011092DD011092DC010895CB
:100830001092DF011092DE016FE271E0C9010C94A9
:100840004709CF93DF93CDB7DEB728970FB6F8945B
:10085000DEBF0FBECDBF789484B5826084BD84B501
:10086000816084BD85B5826085BD85B5816085BDAB
:1008700080916E00816080936E0010928100809163
:1008800081008260809381008091810081608093EB
:100890008100809180008160809380008091B10010
:1008A00084608093B1008091B00081608093B0003B
:1008B00080917A00846080937A0080917A008260CF
:1008C00080937A0080917A00816080937A00809191
:1008D0007A00806880937A001092C10061E08DE018
:1008E0000E94E60161E083E00E94E60160E082E0B0
:1008F0000E94E601E0914D01F0914E0182E080837B
:10090000E0914901F0914A011082E0914B01F09190
:100910004C018FEC808310925501E0915101F091D0
:10092000520186E08083E0914F01F0915001808177
:1009300080618083E0914F01F09150018081886057
:100940008083E0914F01F091500180818068808325
:10095000E0914F01F091500180818F7D808393E081
:10096000C92ED12C23E2A22EB12C3CE9232E30E05B
:10097000332ECE0101967C0140E0842E40E0942E7F
:1009800060E083E00E949A01C6010197F1F761E0FF
:1009900083E00E949A01C5010197F1F760E083E0CE
:1009A0000E949A01E0EBF0E06491F1018491E82F5C
:1009B000F0E0EE0FFF1FE057FF4F8591949100E4A8
:1009C00012E42FE030E0462F0E94680361157105A4
:1009D0008105910529F06F5F7F4F8F4F9F4F9F706B
:1009E0000E94F00526E933E44BE05DE30E942B060C
:1009F00020E030E040E05FE30E942B060E942007E9
:100A00002B018B0170933C0160933B0188E090E0E7
:100A10000E946E022091DA013091DB01811139C010
:100A20002115310519F0C9010E94F8071092DB0168
:100A30001092DA011092DF011092DE011092DD01B6
:100A40001092DC018091390190913A010817190741
:100A500061F561E08DE00E949A0168E270E080E05B
:100A600090E00E943C0260E08DE00E949A016CE3FD
:100A700070E080E090E00E943C028114910409F44F
:100A80007FCF0E94F700882309F47ACF0E940000EC
:100A900077CF88E090E09093DF018093DE0168E1FA
:100AA00071E0C9010E944709CDCF50923A014092AE
:100AB000390169E070E081E291E00E949C024AE025
:100AC000B701C2010E94B905F70101900020E9F7C2
:100AD0003197BF016E197F09C7010E949C0261E036
:100AE00070E08BE291E00E949C024091DE01509107
:100AF000DF016091DA017091DB018DE391E00E94EA
:100B00008D0042E050E06DE271E08DE391E00E94E3
:100B10008D0061E08DE00E949A0164E170E080E068
:100B200090E00E943C0260E08DE00E949A0162E346
:100B300070E080E090E00E943C0261E08DE00E9465
:100B40009A0164E170E080E090E00E943C0260E085
:100B50008DE00E949A016AE070E080E090E08BCF27
:100B60008091DA019091DB01009711F00C94F80765
:100B70000895BB274A3031F4992322F4BDE29095C1
:100B800081959F4F0C94C505BB27FB015527AA27CC
:100B9000880F991FAA1FA41710F0A41B839550510A
:100BA000B9F7A05DAA3308F0A95DA193009779F782
:100BB000B111B1931192CB010C94DE05DC01FC0163
:100BC000672F71917723E1F7329704C07C916D9381
:100BD00070836291AE17BF07C8F30895E89409C007
:100BE00097FB3EF490958095709561957F4F8F4F60
:100BF0009F4F9923A9F0F92F96E9BB279395F69576
:100C0000879577956795B795F111F8CFFAF4BB0FF3
:100C100011F460FF1BC06F5F7F4F8F4F9F4F16C057
:100C2000882311F096E911C0772321F09EE8872FE1
:100C3000762F05C0662371F096E8862F70E060E09D
:100C40002AF09A95660F771F881FDAF7880F969516
:100C5000879597F908950E943E060C94AF060E946E
:100C6000A10638F00E94A80620F0952311F00C94FC
:100C700098060C949E0611240C94E3060E94C0066C
:100C800070F3959FC1F3950F50E0551F629FF001DF
:100C9000729FBB27F00DB11D639FAA27F00DB11DF8
:100CA000AA1F649F6627B00DA11D661F829F222781
:100CB000B00DA11D621F739FB00DA11D621F839F08
:100CC000A00D611D221F749F3327A00D611D231FDE
:100CD000849F600D211D822F762F6A2F11249F572C
:100CE00050409AF0F1F088234AF0EE0FFF1FBB1F2F
:100CF000661F771F881F91505040A9F79E3F5105EE
:100D000080F00C9498060C94E3065F3FE4F3983E61
:100D1000D4F3869577956795B795F795E7959F5F97
:100D2000C1F7FE2B880F911D9695879597F9089529
:100D300097F99F6780E870E060E008959FEF80EC8E
:100D4000089500240A941616170618060906089531
:100D500000240A9412161306140605060895092E97
:100D60000394000C11F4882352F0BB0F40F4BF2B06
:100D700011F460FF04C06F5F7F4F8F4F9F4F089546
:100D800057FD9058440F551F59F05F3F71F047953C
:100D9000880F97FB991F61F09F3F79F08795089521
:100DA000121613061406551FF2CF4695F1DF08C040
:100DB000161617061806991FF1CF8695710561055D
:100DC00008940895E894BB2766277727CB0197F905
:100DD00008952F923F924F925F926F927F928F92DF
:100DE0009F92AF92BF92CF92DF92EF92FF920F93BA
:100DF0001F93CF93DF93CDB7DEB7CA1BDB0B0FB6C4
:100E0000F894DEBF0FBECDBF09942A883988488880
:100E10005F846E847D848C849B84AA84B984C88416
:100E2000DF80EE80FD800C811B81AA81B981CE0F0D
:100E3000D11D0FB6F894DEBF0FBECDBFED010895F2
:100E40000E9427076894B1110C94E30608950E944C
:100E5000C80688F09F5798F0B92F9927B751B0F07E
:100E6000E1F0660F771F881F991F1AF0BA95C9F72E
:100E700014C0B13091F00E94E206B1E008950C94E4
:100E8000E206672F782F8827B85F39F0B93FCCF397
:100E9000869577956795B395D9F73EF490958095AB
:100EA000709561957F4F8F4F9F4F0895EE0FFF1FF5
:100EB0000590F491E02D09940F931F93CF93DF9346
:100EC0008230910510F482E090E0E091E201F0912F
:100ED000E30130E020E0B0E0A0E0309799F4211584
:100EE000310509F44AC0281B390B24303105D8F5E7
:100EF0008A819B816115710589F1FB01938382834E
:100F0000FE0111C0408151810281138148175907A8
:100F1000E0F04817590799F4109761F012960C9376
:100F2000129713961C933296CF01DF91CF911F91A8
:100F30000F9108950093E2011093E301F4CF21157E
:100F4000310551F04217530738F0A901DB019A012E
:100F5000BD01DF01F801C1CFEF01F9CF9093E301AB
:100F60008093E201CDCFFE01E20FF31F81939193B5
:100F70002250310939832883D7CF2091E001309165
:100F8000E101232B41F420910201309103013093C0
:100F9000E1012093E0012091000130910101211530
:100FA000310541F42DB73EB7409104015091050140
:100FB000241B350BE091E001F091E101E217F3070A
:100FC000A0F42E1B3F0B2817390778F0AC014E5FB9
:100FD0005F4F2417350748F04E0F5F1F5093E10114
:100FE0004093E001819391939FCFF0E0E0E09CCFAC
:100FF000CF93DF930097E9F0FC01329713821282BE
:10100000A091E201B091E301ED0130E020E0109702
:10101000A1F420813181820F931F2091E001309152
:10102000E1012817390709F061C0F093E101E0936D
:10103000E001DF91CF910895EA01CE17DF07E8F5CF
:101040004A815B819E0141155105B1F7E901FB839E
:10105000EA8349915991C40FD51FEC17FD0761F43C
:10106000808191810296840F951FE901998388837D
:10107000828193819B838A83F0E0E0E012968D91D8
:101080009C9113970097B9F52D913C911197CD0143
:101090000296820F931F2091E0013091E101281701
:1010A000390739F6309751F51092E3011092E201B9
:1010B000B093E101A093E001BCCFD383C283408110
:1010C0005181840F951FC817D90761F44E5F5F4F98
:1010D00088819981480F591F518340838A819B8160
:1010E000938382832115310509F0B0CFF093E3019A
:1010F000E093E2019ECFFD01DC01C0CF138212829A
:10110000D7CFB0E0A0E0E7E8F8E00C94EB068C0164
:10111000009751F4CB010E945C078C01C801CDB748
:10112000DEB7E0E10C940707FC01E60FF71F9C0116
:1011300022503109E217F30708F49DC0D901CD917F
:10114000DC911197C617D70798F0C530D10530F359
:10115000CE0104978617970708F3C61BD70B229773
:10116000C193D1936D937C93CF010E94F807D6CFA2
:101170005B01AC1ABD0A4C018C0E9D1EA091E201D0
:10118000B091E301512C412CF12CE12C109731F559
:101190008091E0019091E1018815990509F05CC00A
:1011A0004616570608F058C0809100019091010141
:1011B000009741F48DB79EB740910401509105010D
:1011C000841B950BE817F90708F055C0F093E1016F
:1011D000E093E001F90171836083A0CF8D919C9130
:1011E000119712966C90129713967C901397A815EE
:1011F000B90559F56C0142E0C40ED11CCA14DB04D8
:1012000020F1AC014A195B09DA011296159780F0BA
:101210006282738251834083D9016D937C93E11480
:10122000F10471F0D7011396FC93EE93129776CFE9
:1012300022968C0F9D1FF90191838083F301EFCFDC
:10124000F093E301E093E20169CF4816590608F4F0
:101250002C017D01D3019ACFCB010E945C077C0158
:10126000009749F0AE01B8010E943E09C8010E94F2
:10127000F807870153CF10E000E050CFFB01DC01FD
:1012800002C001900D9241505040D8F70895FB01E3
:10129000DC0101900D920020E1F7089510E0C2E614
:1012A000D0E004C0FE010E9456072196C336D10744
:0612B000C9F7F894FFCF1E
:1012B6000000E4018000000000002D018D00BA004E
:1012C6007A01EB00C900DD0053454E534F523A20D8
:1012D6000064697374616E63653D007C000D0A00ED
:00000001FF
