:100000000C9462000C948A000C948A000C948A0070
:100010000C948A000C948A000C948A000C948A0038
:100020000C948A000C948A000C948A000C948A0028
:100030000C948A000C948A000C948A000C948A0018
:100040000C94DA020C948A000C94A8020C9482029C
:100050000C948A000C948A000C948A000C948A00F8
:100060000C948A000C948A000000000024002700F1
:100070002A000000000023002600290000000000E4
:10008000250028002B0004040404040404040202D4
:100090000202020203030303030301020408102007
:1000A0004080010204081020010204081020000012
:1000B0000008000201000003040700000000000027
:1000C0000000D80411241FBECFEFD8E0DEBFCDBFA3
:1000D00011E0A0E0B1E0E0ECFCE002C005900D9280
:1000E000AA34B107D9F721E0AAE4B1E001C01D921A
:1000F000A03FB207E1F710E0C2E6D0E004C02197CC
:10010000FE010E945806C136D107C9F70E94690353
:100110000C945E060C940000AF92BF92CF92DF92D7
:10012000EF92FF920F931F93CF93DF936C017B01AC
:100130008B01040F151FEB015E01AE18BF08C0173D
:10014000D10759F06991D601ED91FC910190F081B0
:10015000E02DC6010995892B79F7C501DF91CF9173
:100160001F910F91FF90EF90DF90CF90BF90AF90D5
:100170000895FC01538D448D252F30E0842F90E0AD
:10018000821B930B541710F0CF9608950197089592
:10019000FC01918D828D981761F0A28DAE0FBF2F5B
:1001A000B11D5D968C91928D9F5F9F73928F90E0B1
:1001B00008958FEF9FEF0895FC01918D828D981720
:1001C00031F0828DE80FF11D858D90E008958FEF5D
:1001D0009FEF0895FC01918D228D892F90E0805C26
:1001E0009F4F821B91098F739927089583E591E0B2
:1001F0000E94EA0021E0892B09F420E0822F089573
:1002000080E090E0892B29F00E94F60081110C9487
:1002100000000895FC01A48DA80FB92FB11DA35AA9
:10022000BF4F2C91848D90E001968F739927848F16
:10023000A689B7892C93A089B1898C918370806439
:100240008C93938D848D981306C00288F389E02DDA
:1002500080818F7D80830895EF92FF920F931F938B
:10026000CF93DF93EC0181E0888F9B8D8C8D981369
:100270001AC0E889F989808185FF15C09FB7F89475
:10028000EE89FF896083E889F989808183708064C1
:1002900080839FBF81E090E0DF91CF911F910F910C
:1002A000FF90EF900895F62E0B8D10E00F5F1F4F1B
:1002B0000F731127E02E8C8D8E110CC00FB607FC2A
:1002C000FACFE889F989808185FFF5CFCE010E94B8
:1002D0000A01F1CFEB8DEC0FFD2FF11DE35AFF4F1B
:1002E000F0829FB7F8940B8FEA89FB898081806246
:1002F000CFCFCF93DF93EC01888D8823B9F0AA8903
:10030000BB89E889F9898C9185FD03C0808186FDD0
:100310000DC00FB607FCF7CF8C9185FFF2CF80811F
:1003200085FFEDCFCE010E940A01E9CFDF91CF9189
:100330000895833081F028F4813099F08230A9F05B
:1003400008958730A9F08830C9F08430B1F48091E5
:1003500080008F7D03C0809180008F778093800024
:10036000089584B58F7784BD089584B58F7DFBCFC4
:100370008091B0008F778093B00008958091B00095
:100380008F7DF9CF1F93CF93DF93E5EBF0E094914E
:10039000E1EAF0E0D491EDE8F0E0C491CC23B9F0CB
:1003A000182F992319F0892F0E949901EC2FF0E062
:1003B000EE0FFF1FE458FF4FA591B4918FB7F8944B
:1003C000EC91111108C0D095DE23DC938FBFDF9133
:1003D000CF911F910895DE2BF8CFCF93DF9390E05C
:1003E000FC01E656FF4F24918A579F4FFC018491F0
:1003F0008823D1F090E0880F991FFC01E859FF4F46
:10040000A591B491FC01E458FF4FC591D4916111BD
:100410000EC09FB7F8948C91E22FE0958E238C93B9
:100420002881E223E8839FBFDF91CF9108958FB7A2
:10043000F894EC91E22BEC938FBFF6CF3FB7F89492
:1004400080914F0190915001A0915101B0915201C2
:1004500026B5A89B05C02F3F19F00196A11DB11D1F
:100460003FBFBA2FA92F982F8827BC01CD01620F5B
:10047000711D811D911D42E0660F771F881F991F16
:100480004A95D1F708958F929F92AF92BF92CF92E3
:10049000DF92EF92FF924B015C010E941E026B0102
:1004A0007C010E941E026C197D098E099F09683E1D
:1004B000734081059105A8F321E0821A9108A108F3
:1004C000B10888EEC80E83E0D81EE11CF11C81142F
:1004D0009104A104B10429F7FF90EF90DF90CF9031
:1004E000BF90AF909F908F900895FC0101900020E5
:1004F000E9F73197AF01481B590BBC0183E591E047
:100500000C948C001F920F920FB60F9211242F9310
:100510003F934F935F936F937F938F939F93AF938B
:10052000BF93EF93FF9383E591E00E940A01FF914F
:10053000EF91BF91AF919F918F917F916F915F915B
:100540004F913F912F910F900FBE0F901F901895D4
:100550001F920F920FB60F9211242F938F939F9398
:10056000EF93FF93E0916301F09164018081E0914A
:100570006901F0916A0182FD1BC0908180916C013C
:100580008F5F8F7320916D01821741F0E0916C01B4
:10059000F0E0ED5AFE4F958F80936C01FF91EF9143
:1005A0009F918F912F910F900FBE0F901F901895D4
:1005B0008081F4CF1F920F920FB60F9211242F93C8
:1005C0003F938F939F93AF93BF9380914B019091F3
:1005D0004C01A0914D01B0914E0130914A0123E0B0
:1005E000230F2D3758F50196A11DB11D20934A0107
:1005F00080934B0190934C01A0934D01B0934E0119
:1006000080914F0190915001A0915101B091520100
:100610000196A11DB11D80934F0190935001A093AD
:100620005101B0935201BF91AF919F918F913F9132
:100630002F910F900FBE0F901F90189526E8230F53
:100640000296A11DB11DD2CFCF92DF92EF92FF9201
:100650000F931F93E82FF92F05C0015011092109AD
:10066000310961F1908196239417B9F305C00150C7
:1006700011092109310911F1908196239413F7CFC3
:10068000C12CD12CE12CF12C0AC08FEFC81AD80A4A
:10069000E80AF80A0C151D052E053F0579F0808142
:1006A0008623841791F36C2D7D2D8E2D9F2D1F9108
:1006B0000F91FF90EF90DF90CF90089560E070E091
:1006C00080E090E01F910F91FF90EF90DF90CF902E
:1006D0000895CF93DF93CDB7DEB7A1970FB6F89407
:1006E000DEBF0FBECDBF789484B5826084BD84B573
:1006F000816084BD85B5826085BD85B5816085BD1D
:1007000080916E00816080936E00109281008091D4
:10071000810082608093810080918100816080935C
:100720008100809180008160809380008091B10081
:1007300084608093B1008091B00081608093B000AC
:1007400080917A00846080937A0080917A00826040
:1007500080937A0080917A00816080937A00809102
:100760007A00806880937A001092C10060E08DE08A
:100770000E94ED0161E087E00E94ED0160E086E00B
:100780000E94ED01E0916301F091640182E08083B9
:10079000E0915F01F09160011082E0916101F091C0
:1007A00062018FEC808310926B01E0916701F09100
:1007B000680186E08083E0916501F09166018081A7
:1007C00080618083E0916501F0916601808188609D
:1007D0008083E0916501F09166018081806880836B
:1007E000E0916501F091660180818F7D808323E037
:1007F000E22EF12C33E2C32ED12C40EA242E40E02D
:10080000342E5AE0852E912CA12CB12CEBEBF0E08C
:100810008491E7EAF0E07490E3E9F0E06490662008
:1008200009F4A7C081110E949901E62DF0E0EE0FB6
:10083000FF1FEE58FF4FA591B4918C91782209F4D7
:1008400098C064E170E080E090E00E94430282E1A1
:1008500091E00E94750283E291E00E94750280E0BF
:100860000E94C201C7010197F1F781E00E94C20115
:10087000C6010197F1F780E00E94C201F101649185
:10088000ECE8F0E08491E82FF0E0EE0FFF1FEE5867
:10089000FF4F8591949100E412E42FE030E0462F61
:1008A0000E942403611571058105910529F06F5F90
:1008B0007F4F8F4F9F4F9F700E943D0526E933E485
:1008C0004BE05DE30E94A10520E030E040E05FE303
:1008D0000E94A1050E9405052B0164E170E080E003
:1008E00090E00E94430287E391E00E947502052C8C
:1008F000000C6608770877FE45C06DE283E591E05D
:100900000E942C0122273327A90124193509460901
:10091000570919A2CE0181963C01CA01B901A5016E
:1009200094010E943606605DF30162933F01211538
:1009300031054105510589F76114710419F0C301AE
:100940000E94750283E291E00E94750264E670E005
:1009500080E090E00E94430280E090E0892B09F45F
:1009600055CF0E94F600882309F450CF0E94000062
:100970004DCF64E170E080E090E00E94430286E2A7
:1009800091E067CFA301920119A2CE0181963C01AB
:10099000CA01B901A50194010E943606605DF30108
:1009A00062933F01211531054105510589F7C4CFF7
:1009B000E3E5F1E01382128288EE93E0A0E0B0E07C
:1009C00084839583A683B78384E091E091838083B9
:1009D00085EC90E09587848784EC90E09787868704
:1009E00080EC90E0918B808B81EC90E0938B828BFC
:1009F00082EC90E0958B848B86EC90E0978B868BD5
:100A0000118E128E138E148E08950E940C05689418
:100A1000B1110C949B0508950E94800588F09F57A2
:100A200098F0B92F9927B751B0F0E1F0660F771F12
:100A3000881F991F1AF0BA95C9F714C0B13091F008
:100A40000E949A05B1E008950C949A05672F782FBB
:100A50008827B85F39F0B93FCCF3869577956795CD
:100A6000B395D9F73EF490958095709561957F4F39
:100A70008F4F9F4F0895E89409C097FB3EF49095DF
:100A80008095709561957F4F8F4F9F4F9923A9F067
:100A9000F92F96E9BB279395F695879577956795F6
:100AA000B795F111F8CFFAF4BB0F11F460FF1BC03A
:100AB0006F5F7F4F8F4F9F4F16C0882311F096E9CD
:100AC00011C0772321F09EE8872F762F05C066237B
:100AD00071F096E8862F70E060E02AF09A95660F34
:100AE000771F881FDAF7880F9695879597F90895ED
:100AF00057FD9058440F551F59F05F3F71F04795CF
:100B0000880F97FB991F61F09F3F79F087950895B3
:100B1000121613061406551FF2CF4695F1DF08C0D2
:100B2000161617061806991FF1CF869571056105EF
:100B300008940895E894BB2766277727CB0197F997
:100B400008950E94B4050C9425060E94170638F0FB
:100B50000E941E0620F0952311F00C940E060C94B2
:100B6000140611240C949B050E94780570F3959F40
:100B7000C1F3950F50E0551F629FF001729FBB2794
:100B8000F00DB11D639FAA27F00DB11DAA1F649F30
:100B90006627B00DA11D661F829F2227B00DA11DE3
:100BA000621F739FB00DA11D621F839FA00D611D69
:100BB000221F749F3327A00D611D231F849F600D8A
:100BC000211D822F762F6A2F11249F5750409AF0B3
:100BD000F1F088234AF0EE0FFF1FBB1F661F771F3F
:100BE000881F91505040A9F79E3F510580F00C940A
:100BF0000E060C949B055F3FE4F3983ED4F3869574
:100C000077956795B795F795E7959F5FC1F7FE2BA9
:100C1000880F911D9695879597F9089597F99F6785
:100C200080E870E060E008959FEF80EC0895002474
:100C30000A941616170618060906089500240A9441
:100C400012161306140605060895092E0394000CC7
:100C500011F4882352F0BB0F40F4BF2B11F460FF56
:100C600004C06F5F7F4F8F4F9F4F0895A1E21A2EF0
:100C7000AA1BBB1BFD010DC0AA1FBB1FEE1FFF1F40
:100C8000A217B307E407F50720F0A21BB30BE40B90
:100C9000F50B661F771F881F991F1A9469F76095D7
:100CA0007095809590959B01AC01BD01CF01089591
:100CB000EE0FFF1F0590F491E02D0994F894FFCFFB
:100CC000000000002C018C00B9007901EA00C80086
:100CD000DC0053454E534F523A20627574746F6E68
:100CE0003D31000D0A0053454E534F523A20627574
:100CF00074746F6E3D300053454E534F523A20642A
:0A0D0000697374616E63653D0000C5
:00000001FF
