:100000000C945D000C9485000C9485000C94850084
:100010000C9485000C9485000C9485000C9485004C
:100020000C9485000C9485000C9485000C9485003C
:100030000C9485000C9485000C9485000C9485002C
:100040000C94CB020C9485000C9499020C947302CE
:100050000C9485000C9485000C9485000C9485000C
:100060000C9485000C94850000000008000201003B
:100070000003040700000000000000000000000072
:10008000250028002B0000000000240027002A0083
:10009000040404040404040402020202020203032E
:1000A0000303030301020408102040800102040836
:1000B0001020010204081020AC0411241FBECFEF51
:1000C000D8E0DEBFCDBF11E0A0E0B1E0E2ECF9E0A6
:1000D00002C005900D92A639B107D9F722E0A6E932
:1000E000B1E001C01D92AC33B207E1F710E0CDE5FD
:1000F000D0E004C02197FE010E94D904CC35D1077D
:10010000C9F70E9415030C94DF040C94000090E0E2
:10011000FC01EC55FF4F249180579F4FFC018491C7
:10012000882399F090E0880F991FFC01EA57FF4F50
:10013000A591B491FC01E458FF4F859194918FB73C
:10014000F894EC91E22BEC938FBF0895AF92BF929D
:10015000CF92DF92EF92FF920F931F93CF93DF9393
:100160006C017B018B01040F151FEB015E01AE18C2
:10017000BF08C017D10759F06991D601ED91FC91E4
:100180000190F081E02DC6010995892B79F7C50111
:10019000DF91CF911F910F91FF90EF90DF90CF9063
:1001A000BF90AF900895FC01538D448D252F30E012
:1001B000842F90E0821B930B541710F0CF96089574
:1001C00001970895FC01918D828D981761F0A28DA1
:1001D000AE0FBF2FB11D5D968C91928D9F5F9F7367
:1001E000928F90E008958FEF9FEF0895FC01918D1D
:1001F000828D981731F0828DE80FF11D858D90E08A
:1002000008958FEF9FEF0895FC01918D228D892F26
:1002100090E0805C9F4F821B91098F73992708950E
:100220008FE991E00E94040121E0892B09F420E08C
:10023000822F089580E090E0892B29F00E94100120
:1002400081110C9400000895FC01A48DA80FB92F12
:10025000B11DA35ABF4F2C91848D90E001968F73EE
:100260009927848FA689B7892C93A089B1898C910D
:10027000837080648C93938D848D981306C002885C
:10028000F389E02D80818F7D80830895EF92FF9226
:100290000F931F93CF93DF93EC0181E0888F9B8DA9
:1002A0008C8D98131AC0E889F989808185FF15C063
:1002B0009FB7F894EE89FF896083E889F989808186
:1002C0008370806480839FBF81E090E0DF91CF9155
:1002D0001F910F91FF90EF900895F62E0B8D10E077
:1002E0000F5F1F4F0F731127E02E8C8D8E110CC0E6
:1002F0000FB607FCFACFE889F989808185FFF5CF31
:10030000CE010E942401F1CFEB8DEC0FFD2FF11DEA
:10031000E35AFF4FF0829FB7F8940B8FEA89FB896D
:1003200080818062CFCFCF93DF93EC01888D8823CB
:10033000B9F0AA89BB89E889F9898C9185FD03C048
:10034000808186FD0DC00FB607FCF7CF8C9185FF2D
:10035000F2CF808185FFEDCFCE010E942401E9CF4D
:10036000DF91CF91089590E0FC01E859FF4F24916F
:10037000FC01EC55FF4F3491FC01E057FF4FE49135
:10038000EE23C9F0222339F0233001F1A8F4213003
:1003900019F1223029F1F0E0EE0FFF1FE458FF4F72
:1003A000A591B4918FB7F894EC91611126C0309566
:1003B0003E233C938FBF08952730A9F02830C9F021
:1003C000243049F7809180008F7D03C080918000A8
:1003D0008F7780938000DFCF84B58F7784BDDBCFAC
:1003E00084B58F7DFBCF8091B0008F778093B00074
:1003F000D2CF8091B0008F7DF9CF3E2BDACF3FB7BF
:10040000F89480919B0190919C01A0919D01B091E5
:100410009E0126B5A89B05C02F3F19F00196A11D8E
:10042000B11D3FBFBA2FA92F982F8827BC01CD013E
:10043000620F711D811D911D42E0660F771F881F9D
:10044000991F4A95D1F708958F929F92AF92BF92CC
:10045000CF92DF92EF92FF924B015C010E94FF016D
:100460006B017C010E94FF016C197D098E099F09B7
:10047000683E734081059105A8F321E0821A910836
:10048000A108B10888EEC80E83E0D81EE11CF11C5B
:1004900081149104A104B10429F7FF90EF90DF903B
:1004A000CF90BF90AF909F908F900895CF93DF93A0
:1004B000FC0101900020E9F73197AF01481B590B6F
:1004C000BC018FE991E00E94A600EC0142E050E0FF
:1004D00062E171E08FE991E00E94A6008C0F9D1F00
:1004E000DF91CF9108951F920F920FB60F921124B2
:1004F0002F933F934F935F936F937F938F939F932C
:10050000AF93BF93EF93FF938FE991E00E94240193
:10051000FF91EF91BF91AF919F918F917F916F91DB
:100520005F914F913F912F910F900FBE0F901F90B1
:1005300018951F920F920FB60F9211242F938F933D
:100540009F93EF93FF93E091AF01F091B001808111
:10055000E091B501F091B60182FD1BC090818091C0
:10056000B8018F5F8F732091B901821741F0E0913C
:10057000B801F0E0E156FE4F958F8093B801FF91EE
:10058000EF919F918F912F910F900FBE0F901F9021
:1005900018958081F4CF1F920F920FB60F921124FD
:1005A0002F933F938F939F93AF93BF938091970126
:1005B00090919801A0919901B0919A013091960182
:1005C00023E0230F2D3758F50196A11DB11D20936F
:1005D00096018093970190939801A0939901B0930D
:1005E0009A0180919B0190919C01A0919D01B091F5
:1005F0009E010196A11DB11D80939B0190939C01CA
:10060000A0939D01B0939E01BF91AF919F918F9157
:100610003F912F910F900FBE0F901F90189526E8D5
:10062000230F0296A11DB11DD2CF789484B58260AC
:1006300084BD84B5816084BD85B5826085BD85B586
:10064000816085BD80916E00816080936E00109204
:10065000810080918100826080938100809181007F
:100660008160809381008091800081608093800010
:100670008091B10084608093B1008091B00081606E
:100680008093B00080917A00846080937A0080919A
:100690007A00826080937A0080917A0081608093F2
:1006A0007A0080917A00806880937A001092C1006D
:1006B00086E00E94870084E00E94870085E00E9417
:1006C000870089E00E94870087E00E94870088E019
:1006D0000E94870061E084E00E94B30160E085E051
:1006E0000E94B30161E087E00E94B30160E088E00E
:1006F0000E94B301E091AF01F091B00182E08083EC
:10070000E091AB01F091AC011082E091AD01F0916C
:10071000AE018FEC80831092B701E091B301F091AC
:10072000B40186E08083E091B101F091B201808153
:1007300080618083E091B101F091B2018081886095
:100740008083E091B101F091B20180818068808363
:10075000E091B101F091B20180818F7D808300E052
:1007600010E0C2E0D0E068EE73E080E090E00E942C
:10077000240285E191E00E94560268EE73E080E079
:1007800090E00E9424028EE191E00E94560268EE01
:1007900073E080E090E00E94240288E291E00E94F1
:1007A000560268EE73E080E090E00E94240283E34A
:1007B00091E00E94560261E084E00E94B30160E093
:1007C00085E00E94B30161E087E00E94B30160E030
:1007D00088E00E94B30186E00E94870061E086E025
:1007E0000E94B30189E00E94870061E089E00E94D5
:1007F000B30168EE73E080E090E00E94240286E09E
:100800000E94870060E086E00E94B30189E00E94B8
:10081000870060E089E00E94B30185E191E00E94D9
:10082000560268EE73E080E090E00E9424028EE1C0
:1008300091E00E94560268EE73E080E090E00E9432
:10084000240288E291E00E94560268EE73E080E0A4
:1008500090E00E94240282E591E00E94560260E04E
:1008600084E00E94B30161E085E00E94B30160E092
:1008700087E00E94B30161E088E00E94B30186E056
:100880000E94870061E086E00E94B30189E00E9437
:10089000870061E089E00E94B30168EE73E080E0C8
:1008A00090E00E94240286E00E94870060E086E0DB
:1008B0000E94B30189E00E94870060E089E00E9405
:1008C000B301219709F045C08BE691E00E945602E2
:1008D00060E084E00E94B30160E085E00E94B30123
:1008E00060E087E00E94B30161E088E00E94B3010C
:1008F00089E00E94870061E089E00E94B30160ED19
:1009000077E080E090E00E94240286E00E94870069
:1009100060E086E00E94B30189E00E94870060E009
:1009200089E00E94B30162E370E080E090E00E9401
:10093000240287E891E00E9456020115110509F48E
:1009400010CF0E941001882309F40BCF0E940000F1
:1009500008CFC1E0D0E007CFEFE9F1E013821282C7
:1009600088EE93E0A0E0B0E084839583A683B7830C
:1009700084E091E09183808385EC90E09587848783
:1009800084EC90E09787868780EC90E0918B808B59
:1009900081EC90E0938B828B82EC90E0958B848B42
:1009A00086EC90E0978B868B118E128E138E148EB0
:1009B0000895EE0FFF1F0590F491E02D0994F8942F
:0209C000FFCF67
:1009C200000000004601A600D30093010401E200EA
:1009D200F6000D0A004C4F473A20556E2C004C4F42
:1009E200473A20646F732C004C4F473A207472656B
:1009F2007321004C4F473A20556E20706173697421
:100A02006F2070616C616E74652C204D617269613A
:100A120021004C4F473A20556E2070617369746F04
:100A2200207061747261732E2E2E004C4F473A2053
:100A320041756E717565206D65206D7565726120F9
:100A420061686F72612100576865656C2046696E46
:060A520069736865640091
:00000001FF
