:100000000C945D000C9485000C9485000C94850084
:100010000C9485000C9485000C9485000C9485004C
:100020000C9485000C9485000C9485000C9485003C
:100030000C9485000C9485000C9485000C9485002C
:100040000C94BE020C9485000C948C020C946602F5
:100050000C9485000C9485000C9485000C9485000C
:100060000C9485000C94850000000008000201003B
:100070000003040700000000000000000000000072
:10008000250028002B0000000000240027002A0083
:10009000040404040404040402020202020203032E
:1000A0000303030301020408102040800102040836
:1000B00010200102040810203E0411241FBECFEFBF
:1000C000D8E0DEBFCDBF11E0A0E0B1E0EAE2F9E0A8
:1000D00002C005900D92A033B107D9F721E0A0E34B
:1000E000B1E001C01D92A63DB207E1F710E0CDE5F9
:1000F000D0E004C02197FE010E948D04CC35D107C9
:10010000C9F70E9408030C9493040C94000090E03B
:10011000FC01EC55FF4F249180579F4FFC018491C7
:10012000882399F090E0880F991FFC01EA57FF4F50
:10013000A591B491FC01E458FF4F859194918FB73C
:10014000F894EC91E22BEC938FBF0895AF92BF929D
:10015000CF92DF92EF92FF920F931F93CF93DF9393
:100160006C017B018B01040F151FEB015E01AE18C2
:10017000BF08C017D10759F06991D601ED91FC91E4
:100180000190F081E02DC6010995892B79F7C50111
:10019000DF91CF911F910F91FF90EF90DF90CF9063
:1001A000BF90AF900895FC01538D448D252F30E012
:1001B000842F90E0821B930B541710F0CF96089574
:1001C00001970895FC01918D828D981761F0A28DA1
:1001D000AE0FBF2FB11D5D968C91928D9F5F9F7367
:1001E000928F90E008958FEF9FEF0895FC01918D1D
:1001F000828D981731F0828DE80FF11D858D90E08A
:1002000008958FEF9FEF0895FC01918D228D892F26
:1002100090E0805C9F4F821B91098F73992708950E
:1002200089E391E00E94040121E0892B09F420E098
:10023000822F089580E090E0892B29F00E94100120
:1002400081110C9400000895FC01A48DA80FB92F12
:10025000B11DA35ABF4F2C91848D90E001968F73EE
:100260009927848FA689B7892C93A089B1898C910D
:10027000837080648C93938D848D981306C002885C
:10028000F389E02D80818F7D80830895EF92FF9226
:100290000F931F93CF93DF93EC0181E0888F9B8DA9
:1002A0008C8D98131AC0E889F989808185FF15C063
:1002B0009FB7F894EE89FF896083E889F989808186
:1002C0008370806480839FBF81E090E0DF91CF9155
:1002D0001F910F91FF90EF900895F62E0B8D10E077
:1002E0000F5F1F4F0F731127E02E8C8D8E110CC0E6
:1002F0000FB607FCFACFE889F989808185FFF5CF31
:10030000CE010E942401F1CFEB8DEC0FFD2FF11DEA
:10031000E35AFF4FF0829FB7F8940B8FEA89FB896D
:1003200080818062CFCFCF93DF93EC01888D8823CB
:10033000B9F0AA89BB89E889F9898C9185FD03C048
:10034000808186FD0DC00FB607FCF7CF8C9185FF2D
:10035000F2CF808185FFEDCFCE010E942401E9CF4D
:10036000DF91CF91089590E0FC01E859FF4F24916F
:10037000FC01EC55FF4F3491FC01E057FF4FE49135
:10038000EE23C9F0222339F0233001F1A8F4213003
:1003900019F1223029F1F0E0EE0FFF1FE458FF4F72
:1003A000A591B4918FB7F894EC91611126C0309566
:1003B0003E233C938FBF08952730A9F02830C9F021
:1003C000243049F7809180008F7D03C080918000A8
:1003D0008F7780938000DFCF84B58F7784BDDBCFAC
:1003E00084B58F7DFBCF8091B0008F778093B00074
:1003F000D2CF8091B0008F7DF9CF3E2BDACF3FB7BF
:10040000F8948091350190913601A0913701B09117
:10041000380126B5A89B05C02F3F19F00196A11DF4
:10042000B11D3FBFBA2FA92F982F8827BC01CD013E
:10043000620F711D811D911D42E0660F771F881F9D
:10044000991F4A95D1F708958F929F92AF92BF92CC
:10045000CF92DF92EF92FF920E94FF014B015C016D
:1004600082E3C82ED12CE12CF12C0E94FF016819E7
:1004700079098A099B09683E734081059105A8F3B3
:1004800021E0C21AD108E108F10888EE880E83E065
:10049000981EA11CB11CC114D104E104F10429F778
:1004A000FF90EF90DF90CF90BF90AF909F908F9094
:1004B0000895FC0101900020E9F73197AF01481B36
:1004C000590BBC0189E391E00C94A6001F920F9296
:1004D0000FB60F9211242F933F934F935F936F9317
:1004E0007F938F939F93AF93BF93EF93FF9389E392
:1004F00091E00E942401FF91EF91BF91AF919F91F4
:100500008F917F916F915F914F913F912F910F90BC
:100510000FBE0F901F9018951F920F920FB60F925B
:1005200011242F938F939F93EF93FF93E0914901B1
:10053000F0914A018081E0914F01F091500182FDDC
:100540001BC09081809152018F5F8F732091530166
:10055000821741F0E0915201F0E0E75CFE4F958F89
:1005600080935201FF91EF919F918F912F910F9066
:100570000FBE0F901F9018958081F4CF1F920F929D
:100580000FB60F9211242F933F938F939F93AF93A6
:10059000BF938091310190913201A0913301B091CC
:1005A00034013091300123E0230F2D3758F50196A7
:1005B000A11DB11D20933001809331019093320130
:1005C000A0933301B09334018091350190913601AD
:1005D000A0913701B09138010196A11DB11D809302
:1005E000350190933601A0933701B0933801BF9144
:1005F000AF919F918F913F912F910F900FBE0F90D0
:100600001F90189526E8230F0296A11DB11DD2CF89
:10061000CF93DF93CDB7DEB7A1970FB6F894DEBFC7
:100620000FBECDBF789484B5826084BD84B58160EF
:1006300084BD85B5826085BD85B5816085BD8091AD
:100640006E00816080936E00109281008091810025
:10065000826080938100809181008160809381001D
:10066000809180008160809380008091B1008460DF
:100670008093B1008091B00081608093B000809140
:100680007A00846080937A0080917A0082608093FF
:100690007A0080917A00816080937A0080917A005C
:1006A000806880937A001092C10089E00E948700E0
:1006B00087E00E94870088E00E94870061E087E071
:1006C0000E94B30160E088E00E94B301E09149011B
:1006D000F0914A0182E08083E0914501F09146016A
:1006E0001082E0914701F09148018FEC80831092D5
:1006F0005101E0914D01F0914E0186E08083E0913F
:100700004B01F0914C01808180618083E0914B012D
:10071000F0914C01808188608083E0914B01F091E1
:100720004C01808180688083E0914B01F0914C0105
:1007300080818F7D8083C12CD12C760181E7A82E0A
:1007400080E0B82E9AE0492E512C612C712C89E062
:100750000E9487009601C114D10409F049C060E0ED
:1007600089E00E94B3010E94240282E191E00E948C
:10077000590219A2A70196018E010F5D1F4FCA01F0
:10078000B901A30192010E946B04605DF8016293BC
:100790008F01211531054105510589F7309719F071
:1007A000CF010E9459028DE191E00E945902FFEFB2
:1007B000CF1ADF0AEF0AFF0AC11481E0D806E1046C
:1007C000F10429F60E94240280E291E00E9459027D
:1007D0008DE191E00E94590200E010E00115110541
:1007E000E9F30E9410018823C9F30E940000F6CFAC
:1007F0002F3F310511F461E0B3CFF50184918330CF
:1008000019F140F48130B1F08230C9F0203831055F
:1008100094F7A5CF873011F1883041F18430B1F7DA
:1008200080918000806280938000D0928B00C09283
:100830008A0099CF84B5806884BDC7BC94CF84B545
:10084000806284BDC8BC8FCF809180008068809317
:100850008000D0928900C092880085CF8091B0003E
:1008600080688093B000C092B3007DCF8091B000CB
:1008700080628093B000C092B40075CFE9E3F1E0EC
:100880001382128288EE93E0A0E0B0E08483958327
:10089000A683B78384E091E09183808385EC90E028
:1008A0009587848784EC90E09787868780EC90E03A
:1008B000918B808B81EC90E0938B828B82EC90E02B
:1008C000958B848B86EC90E0978B868B118E128EA5
:1008D000138E148E0895A1E21A2EAA1BBB1BFD01D4
:1008E0000DC0AA1FBB1FEE1FFF1FA217B307E4070F
:1008F000F50720F0A21BB30BE40BF50B661F771F67
:10090000881F991F1A9469F7609570958095909546
:100910009B01AC01BD01CF010895EE0FFF1F0590B3
:0A092000F491E02D0994F894FFCF44
:10092A00000000004601A600D30093010401E20082
:10093A00F6004C4F473A206A20697320000D0A00DE
:10094A00576865656C2046696E697368656400005E
:00000001FF
