:100000000C9462000C948A000C948A000C948A0070
:100010000C948A000C948A000C948A000C948A0038
:100020000C948A000C948A000C948A000C948A0028
:100030000C948A000C948A000C948A000C948A0018
:100040000C9465020C948A000C9433020C940D02FB
:100050000C948A000C948A000C948A000C948A00F8
:100060000C948A000C948A000000000025002800EF
:100070002B0000000000240027002A0000000000E0
:1000800023002600290004040404040404040202DA
:100090000202020203030303030301020408102007
:1000A0004080010204081020010204081020000012
:1000B0000008000201000003040700000000000027
:1000C0000000C70311241FBECFEFD8E0DEBFCDBFB5
:1000D00011E0A0E0B1E0E8EFF7E002C005900D927A
:1000E000A234B107D9F721E0A2E4B1E001C01D922A
:1000F000A93EB207E1F710E0C2E6D0E004C02197C4
:10010000FE010E94F403C136D107C9F70E94AF0275
:100110000C94FA030C940000AF92BF92CF92DF923E
:10012000EF92FF920F931F93CF93DF936C017B01AC
:100130008B01040F151FEB015E01AE18BF08C0173D
:10014000D10759F06991D601ED91FC910190F081B0
:10015000E02DC6010995892B79F7C501DF91CF9173
:100160001F910F91FF90EF90DF90CF90BF90AF90D5
:100170000895FC01538D448D252F30E0842F90E0AD
:10018000821B930B541710F0CF9608950197089592
:10019000FC01918D828D981761F0A28DAE0FBF2F5B
:1001A000B11D5D968C91928D9F5F9F73928F90E0B1
:1001B00008958FEF9FEF0895FC01918D828D981720
:1001C00031F0828DE80FF11D858D90E008958FEF5D
:1001D0009FEF0895FC01918D228D892F90E0805C26
:1001E0009F4F821B91098F73992708958CE491E0AA
:1001F0000E94EA0021E0892B09F420E0822F089573
:1002000080E090E0892B29F00E94F60081110C9487
:1002100000000895FC01A48DA80FB92FB11DA35AA9
:10022000BF4F2C91848D90E001968F739927848F16
:10023000A689B7892C93A089B1898C918370806439
:100240008C93938D848D981306C00288F389E02DDA
:1002500080818F7D80830895EF92FF920F931F938B
:10026000CF93DF93EC0181E0888F9B8D8C8D981369
:100270001AC0E889F989808185FF15C09FB7F89475
:10028000EE89FF896083E889F989808183708064C1
:1002900080839FBF81E090E0DF91CF911F910F910C
:1002A000FF90EF900895F62E0B8D10E00F5F1F4F1B
:1002B0000F731127E02E8C8D8E110CC00FB607FC2A
:1002C000FACFE889F989808185FFF5CFCE010E94B8
:1002D0000A01F1CFEB8DEC0FFD2FF11DE35AFF4F1B
:1002E000F0829FB7F8940B8FEA89FB898081806246
:1002F000CFCFCF93DF93EC01888D8823B9F0AA8903
:10030000BB89E889F9898C9185FD03C0808186FDD0
:100310000DC00FB607FCF7CF8C9185FFF2CF80811F
:1003200085FFEDCFCE010E940A01E9CFDF91CF9189
:1003300008953FB7F8948091470190914801A091AA
:100340004901B0914A0126B5A89B05C02F3F19F07D
:100350000196A11DB11D3FBFBA2FA92F982F882745
:10036000BC01CD01620F711D811D911D42E0660F20
:10037000771F881F991F4A95D1F708958F929F92F2
:10038000AF92BF92CF92DF92EF92FF924B015C014E
:100390000E9499016B017C010E9499016C197D09F1
:1003A0008E099F09683E734081059105A8F321E0FD
:1003B000821A9108A108B10888EEC80E83E0D81E01
:1003C000E11CF11C81149104A104B10429F7FF90F0
:1003D000EF90DF90CF90BF90AF909F908F90089557
:1003E000CF93DF93FC0101900020E9F73197AF0133
:1003F000481B590BBC018CE491E00E948C00EC017D
:1004000042E050E062E171E08CE491E00E948C00F7
:100410008C0F9D1FDF91CF9108951F920F920FB601
:100420000F9211242F933F934F935F936F937F937A
:100430008F939F93AF93BF93EF93FF938CE491E0DF
:100440000E940A01FF91EF91BF91AF919F918F910F
:100450007F916F915F914F913F912F910F900FBEC0
:100460000F901F9018951F920F920FB60F921124A4
:100470002F938F939F93EF93FF93E0915C01F09103
:100480005D018081E0916201F091630182FD1BC0FA
:100490009081809165018F5F8F7320916601821733
:1004A00041F0E0916501F0E0E45BFE4F958F8093B1
:1004B0006501FF91EF919F918F912F910F900FBE4A
:1004C0000F901F9018958081F4CF1F920F920FB656
:1004D0000F9211242F933F938F939F93AF93BF93CA
:1004E0008091430190914401A0914501B091460152
:1004F0003091420123E0230F2D3758F50196A11DBD
:10050000B11D209342018093430190934401A09335
:100510004501B09346018091470190914801A09117
:100520004901B0914A010196A11DB11D8093470177
:1005300090934801A0934901B0934A01BF91AF91B4
:100540009F918F913F912F910F900FBE0F901F9011
:10055000189526E8230F0296A11DB11DD2CF7894DD
:1005600084B5826084BD84B5816084BD85B58260B8
:1005700085BD85B5816085BD80916E008160809369
:100580006E001092810080918100826080938100D2
:1005900080918100816080938100809180008160E2
:1005A000809380008091B10084608093B10080913D
:1005B000B00081608093B00080917A008460809365
:1005C0007A0080917A00826080937A0080917A002C
:1005D000816080937A0080917A00806880937A00AD
:1005E0001092C100C3EAD0E0FE0124910FE810E0B0
:1005F000F80184918823C9F090E0880F991FFC01CD
:10060000EE58FF4FA591B491FC01E859FF4F459179
:1006100054913FB7F8949C91822F809598239C9396
:10062000FA019081892380833FBFE0915C01F091C2
:100630005D0182E08083E0915801F09159011082C0
:10064000E0915A01F0915B018FEC8083109264017C
:10065000E0916001F091610186E08083E0915E01AC
:10066000F0915F01808180618083E0915E01F09173
:100670005F01808188608083E0915E01F0915F017D
:10068000808180688083E0915E01F0915F018081CC
:100690008F7D808397EBE92E90E0F92E20E0C22E2B
:1006A00020E0D22EBB24B394F7018491FE019491F3
:1006B000F80124912223E9F0882351F0833009F4D2
:1006C00043C0C0F5813009F445C0823009F446C00A
:1006D000E22FF0E0EE0FFF1FE458FF4FA591B49119
:1006E0008C91982331F080914B01811144C0B092DC
:1006F0004B0180914B01882309F440C062E370E014
:1007000080E090E00E94BE0185E191E00E94F0014E
:1007100064E670E080E090E00E94BE01C114D10464
:1007200009F4C2CF0E94F600882309F4BDCF0E94CD
:100730000000BACF8730A9F08830C9F0843041F684
:10074000809180008F7D03C0809180008F7780939F
:100750008000BECF84B58F7784BDBACF84B58F7D3E
:10076000FBCF8091B0008F778093B000B1CF8091A4
:10077000B0008F7DF9CF10924B01BBCF62E370E0E8
:1007800080E090E00E94BE018BE291E0BFCFECE4FC
:10079000F1E01382128288EE93E0A0E0B0E084835F
:1007A0009583A683B78384E091E09183808385EC71
:1007B00090E09587848784EC90E09787868780EC2B
:1007C00090E0918B808B81EC90E0938B828B82EC1C
:1007D00090E0958B848B86EC90E0978B868B118EC6
:1007E000128E138E148E0895EE0FFF1F0590F49154
:0807F000E02D0994F894FFCFFD
:1007F800000000002C018C00B9007901EA00C80053
:10080800DC000D0A0053454E534F523A2064617480
:10081800615F627574746F6E5F310053454E534F5C
:10082800523A20646174615F627574746F6E5F30F0
:020838000000BE
:00000001FF
