:100000000C9462000C948A000C948A000C948A0070
:100010000C948A000C948A000C948A000C948A0038
:100020000C948A000C948A000C948A000C948A0028
:100030000C948A000C948A000C948A000C948A0018
:100040000C94BA020C948A000C9488020C946202FC
:100050000C948A000C948A000C948A000C948A00F8
:100060000C948A000C948A000000000025002800EF
:100070002B0000000000240027002A0000000000E0
:1000800023002600290004040404040404040202DA
:100090000202020203030303030301020408102007
:1000A0004080010204081020010204081020000012
:1000B0000008000201000003040700000000000027
:1000C00000003C0411241FBECFEFD8E0DEBFCDBF3F
:1000D00011E0A0E0B1E0E6E2F9E002C005900D9287
:1000E000AA36B107D9F722E0AAE6B1E001C01D9215
:1000F000A031B207E1F710E0C2E6D0E004C02197DA
:10010000FE010E948B04C136D107C9F70E94040387
:100110000C9491040C940000AF92BF92CF92DF92A6
:10012000EF92FF920F931F93CF93DF936C017B01AC
:100130008B01040F151FEB015E01AE18BF08C0173D
:10014000D10759F06991D601ED91FC910190F081B0
:10015000E02DC6010995892B79F7C501DF91CF9173
:100160001F910F91FF90EF90DF90CF90BF90AF90D5
:100170000895FC01538D448D252F30E0842F90E0AD
:10018000821B930B541710F0CF9608950197089592
:10019000FC01918D828D981761F0A28DAE0FBF2F5B
:1001A000B11D5D968C91928D9F5F9F73928F90E0B1
:1001B00008958FEF9FEF0895FC01918D828D981720
:1001C00031F0828DE80FF11D858D90E008958FEF5D
:1001D0009FEF0895FC01918D228D892F90E0805C26
:1001E0009F4F821B91098F739927089583E791E0B0
:1001F0000E94EA0021E0892B09F420E0822F089573
:1002000080E090E0892B29F00E94F60081110C9487
:1002100000000895FC01A48DA80FB92FB11DA35AA9
:10022000BF4F2C91848D90E001968F739927848F16
:10023000A689B7892C93A089B1898C918370806439
:100240008C93938D848D981306C00288F389E02DDA
:1002500080818F7D80830895EF92FF920F931F938B
:10026000CF93DF93EC0181E0888F9B8D8C8D981369
:100270001AC0E889F989808185FF15C09FB7F89475
:10028000EE89FF896083E889F989808183708064C1
:1002900080839FBF81E090E0DF91CF911F910F910C
:1002A000FF90EF900895F62E0B8D10E00F5F1F4F1B
:1002B0000F731127E02E8C8D8E110CC00FB607FC2A
:1002C000FACFE889F989808185FFF5CFCE010E94B8
:1002D0000A01F1CFEB8DEC0FFD2FF11DE35AFF4F1B
:1002E000F0829FB7F8940B8FEA89FB898081806246
:1002F000CFCFCF93DF93EC01888D8823B9F0AA8903
:10030000BB89E889F9898C9185FD03C0808186FDD0
:100310000DC00FB607FCF7CF8C9185FFF2CF80811F
:1003200085FFEDCFCE010E940A01E9CFDF91CF9189
:1003300008953FB7F89480916F0190917001A0915A
:100340007101B091720126B5A89B05C02F3F19F02D
:100350000196A11DB11D3FBFBA2FA92F982F882745
:10036000BC01CD01620F711D811D911D42E0660F20
:10037000771F881F991F4A95D1F708958F929F92F2
:10038000AF92BF92CF92DF92EF92FF924B015C014E
:100390000E9499016B017C010E9499016C197D09F1
:1003A0008E099F09683E734081059105A8F321E0FD
:1003B000821A9108A108B10888EEC80E83E0D81E01
:1003C000E11CF11C81149104A104B10429F7FF90F0
:1003D000EF90DF90CF90BF90AF909F908F90089557
:1003E000FC0101900020E9F73197AF01481B590B40
:1003F000BC0183E791E00C948C008F929F92AF92A6
:10040000BF920F931F93CF93DF93CDB7DEB7A19722
:100410000FB6F894DEBF0FBECDBF19A2423008F46C
:100420004AE08E010F5D1F4F842E912CB12CA12C20
:10043000A50194010E946904E62FB901CA01EA30BE
:10044000F4F4E05DD801EE938D01232B242B252BB2
:1004500079F790E080E0109719F0CD010E94F0014B
:10046000A1960FB6F894DEBF0FBECDBFDF91CF913E
:100470001F910F91BF90AF909F908F900895E95C6E
:10048000E1CFCF92DF92EF92FF92CF93DF936B0198
:100490007C016DE283E791E00E942C01EC0166276C
:1004A0007727CB016C197D098E099F094AE00E94CC
:1004B000FD018C0F9D1FDF91CF91FF90EF90DF909A
:1004C000CF9008951F920F920FB60F9211242F9381
:1004D0003F934F935F936F937F938F939F93AF93CC
:1004E000BF93EF93FF9383E791E00E940A01FF918E
:1004F000EF91BF91AF919F918F917F916F915F919C
:100500004F913F912F910F900FBE0F901F90189514
:100510001F920F920FB60F9211242F938F939F93D8
:10052000EF93FF93E0918301F09184018081E0914A
:100530008901F0918A0182FD1BC0908180918C011C
:100540008F5F8F7320918D01821741F0E0918C01B4
:10055000F0E0ED58FE4F958F80938C01FF91EF9165
:100560009F918F912F910F900FBE0F901F90189514
:100570008081F4CF1F920F920FB60F9211242F9308
:100580003F938F939F93AF93BF9380916B01909113
:100590006C01A0916D01B0916E0130916A0123E070
:1005A000230F2D3758F50196A11DB11D20936A0127
:1005B00080936B0190936C01A0936D01B0936E01D9
:1005C00080916F0190917001A0917101B0917201C1
:1005D0000196A11DB11D80936F0190937001A093AE
:1005E0007101B0937201BF91AF919F918F913F9133
:1005F0002F910F900FBE0F901F90189526E8230F94
:100600000296A11DB11DD2CF789484B5826084BDBD
:1006100084B5816084BD85B5826085BD85B5816006
:1006200085BD80916E00816080936E001092810084
:10063000809181008260809381008091810081603F
:100640008093810080918000816080938000809100
:10065000B10084608093B1008091B000816080938C
:10066000B00080917A00846080937A0080917A0053
:10067000826080937A0080917A00816080937A0012
:1006800080917A00806880937A001092C100CCE952
:10069000D0E0FE01249108E810E0F801849188235D
:1006A000C9F090E0880F991FFC01EE58FF4FA5910B
:1006B000B491FC01E859FF4F459154913FB7F8942C
:1006C0009C91822F809598239C93FA019081892395
:1006D00080833FBFE0918301F091840182E08083B9
:1006E000E0917F01F09180011082E0918101F09111
:1006F00082018FEC808310928B01E0918701F09151
:10070000880186E08083E0918501F09186018081F7
:1007100080618083E0918501F0918601808188600D
:100720008083E0918501F0918601808180688083DB
:10073000E0918501F091860180818F7D808390EB2F
:10074000E92E90E0F92E20E0C22E20E0D22EF70113
:100750008491FE019491F8012491222309F46FC041
:10076000882359F0833009F453C008F046C0813023
:1007700009F454C0823009F455C0E22FF0E0EE0FC6
:10078000FF1FE458FF4FA591B4918C91982309F471
:1007900056C062E370E080E090E00E94BE0182E11A
:1007A00091E00E94F0014AE060E070E0CB010E941D
:1007B000FD0185E291E00E94F00162E370E080E0DB
:1007C00090E00E94BE0188E291E00E94F00185E283
:1007D00091E00E94F00164EF71E080E090E00E94FF
:1007E000BE01C114D10409F4B2CF0E94F6008823DF
:1007F00009F4ADCF0E940000AACF8730B1F0883055
:10080000D1F0843009F0B9CF809180008F7D03C092
:10081000809180008F7780938000AFCF84B58F77F1
:1008200084BDABCF84B58F7DFBCF8091B0008F7737
:100830008093B000A2CF8091B0008F7DF9CF62E3AA
:1008400070E080E090E00E94BE0183E491E00E94AD
:10085000F0014AE060E070E0CB010E94FD0185E21A
:1008600091E00E94F00162E370E080E090E00E947D
:10087000BE0187E591E0A9CFE3E7F1E013821282A0
:1008800088EE93E0A0E0B0E084839583A683B783ED
:1008900084E091E09183808385EC90E09587848764
:1008A00084EC90E09787868780EC90E0918B808B3A
:1008B00081EC90E0938B828B82EC90E0958B848B23
:1008C00086EC90E0978B868B118E128E138E148E91
:1008D0000895A1E21A2EAA1BBB1BFD010DC0AA1F81
:1008E000BB1FEE1FFF1FA217B307E407F50720F099
:1008F000A21BB30BE40BF50B661F771F881F991F14
:100900001A9469F760957095809590959B01AC015C
:10091000BD01CF010895EE0FFF1F0590F491E02D6A
:060920000994F894FFCFDA
:10092600000000002C018C00B9007901EA00C80023
:10093600DC004C4F473A20524553554C54204F4EFD
:10094600202D3E20000D0A00414354494F4E3A20C7
:100956006D6F76655F666F7277617264735F736CD5
:100966006F77004C4F473A20524553554C54206FF1
:100976006666202D3E2000414354494F4E3A206D75
:0A0986006F76655F73746F700000F8
:00000001FF
