:100000000C9462000C948A000C948A000C948A0070
:100010000C948A000C948A000C948A000C948A0038
:100020000C948A000C948A000C948A000C948A0028
:100030000C948A000C948A000C948A000C948A0018
:100040000C94AB020C948A000C9479020C94530229
:100050000C948A000C948A000C948A000C948A00F8
:100060000C948A000C948A000000000024002700F1
:100070002A000000000023002600290000000000E4
:10008000250028002B0004040404040404040202D4
:100090000202020203030303030301020408102007
:1000A0004080010204081020010204081020000012
:1000B0000008000201000003040700000000000027
:1000C00000009A0411241FBECFEFD8E0DEBFCDBFE1
:1000D00011E0A0E0B1E0E4E4FCE002C005900D9284
:1000E000A636B107D9F722E0A6E6B1E001C01D921D
:1000F000A231B207E1F710E0C2E6D0E004C02197D8
:10010000FE010E941A06C136D107C9F70E943A03C0
:100110000C9420060C940000E5EBF0E02491E1EA59
:10012000F0E09491EDE8F0E0E491EE23C9F02223B1
:1001300039F0233001F1A8F4213019F1223029F1EE
:10014000F0E0EE0FFF1FE458FF4FA591B4912FB7D9
:10015000F894EC91811126C090959E239C932FBF1B
:1001600008952730A9F02830C9F0243049F72091AC
:1001700080002F7D03C0209180002F772093800086
:10018000DFCF24B52F7724BDDBCF24B52F7DFBCF68
:100190002091B0002F772093B000D2CF2091B000F3
:1001A0002F7DF9CF9E2BDACFAF92BF92CF92DF9205
:1001B000EF92FF920F931F93CF93DF936C017B011C
:1001C0008B01040F151FEB015E01AE18BF08C017AD
:1001D000D10759F06991D601ED91FC910190F08120
:1001E000E02DC6010995892B79F7C501DF91CF91E3
:1001F0001F910F91FF90EF90DF90CF90BF90AF9045
:100200000895FC01538D448D252F30E0842F90E01C
:10021000821B930B541710F0CF9608950197089501
:10022000FC01918D828D981761F0A28DAE0FBF2FCA
:10023000B11D5D968C91928D9F5F9F73928F90E020
:1002400008958FEF9FEF0895FC01918D828D98178F
:1002500031F0828DE80FF11D858D90E008958FEFCC
:100260009FEF0895FC01918D228D892F90E0805C95
:100270009F4F821B91098F739927089585E791E01D
:100280000E94320121E0892B09F420E0822F089599
:1002900080E090E0892B29F00E943E0181110C94AE
:1002A00000000895FC01A48DA80FB92FB11DA35A19
:1002B000BF4F2C91848D90E001968F739927848F86
:1002C000A689B7892C93A089B1898C9183708064A9
:1002D0008C93938D848D981306C00288F389E02D4A
:1002E00080818F7D80830895EF92FF920F931F93FB
:1002F000CF93DF93EC0181E0888F9B8D8C8D9813D9
:100300001AC0E889F989808185FF15C09FB7F894E4
:10031000EE89FF896083E889F98980818370806430
:1003200080839FBF81E090E0DF91CF911F910F917B
:10033000FF90EF900895F62E0B8D10E00F5F1F4F8A
:100340000F731127E02E8C8D8E110CC00FB607FC99
:10035000FACFE889F989808185FFF5CFCE010E9427
:100360005201F1CFEB8DEC0FFD2FF11DE35AFF4F42
:10037000F0829FB7F8940B8FEA89FB8980818062B5
:10038000CFCFCF93DF93EC01888D8823B9F0AA8972
:10039000BB89E889F9898C9185FD03C0808186FD40
:1003A0000DC00FB607FCF7CF8C9185FFF2CF80818F
:1003B00085FFEDCFCE010E945201E9CFDF91CF91B1
:1003C0000895FC0101900020E9F73197AF01481B27
:1003D000590BBC0185E791E00C94D4008F929F9259
:1003E000AF92BF920F931F93CF93DF93CDB7DEB73A
:1003F000A1970FB6F894DEBF0FBECDBF19A2423051
:1004000008F44AE08E010F5D1F4F842E912CB12C11
:10041000A12CA50194010E94F805E62FB901CA019B
:10042000EA30F4F4E05DD801EE938D01232B242B08
:10043000252B79F790E080E0109719F0CD010E940C
:10044000E101A1960FB6F894DEBF0FBECDBFDF91DC
:10045000CF911F910F91BF90AF909F908F90089573
:10046000E95CE1CFCF92DF92EF92FF92CF93DF93DF
:100470006B017C016DE285E791E00E947401EC0163
:1004800066277727CB016C197D098E099F094AE001
:100490000E94EE018C0F9D1FDF91CF91FF90EF9096
:1004A000DF90CF9008951F920F920FB60F921124F4
:1004B0002F933F934F935F936F937F938F939F936C
:1004C000AF93BF93EF93FF9385E791E00E945201B2
:1004D000FF91EF91BF91AF919F918F917F916F911C
:1004E0005F914F913F912F910F900FBE0F901F90F2
:1004F00018951F920F920FB60F9211242F938F937E
:100500009F93EF93FF93E0918501F09186018081A5
:10051000E0918B01F0918C0182FD1BC09081809154
:100520008E018F5F8F7320918F01821741F0E091D0
:100530008E01F0E0EB58FE4F958F80938E01FF9176
:10054000EF919F918F912F910F900FBE0F901F9061
:1005500018958081F4CF1F920F920FB60F9211243D
:100560002F933F938F939F93AF93BF9380916B0192
:1005700090916C01A0916D01B0916E0130916A0172
:1005800023E0230F2D3758F50196A11DB11D2093AF
:100590006A0180936B0190936C01A0936D01B093FD
:1005A0006E018091660190916701A0916801B09100
:1005B00069010196A11DB11D8093660190936701A9
:1005C000A0936801B0936901BF91AF919F918F9102
:1005D0003F912F910F900FBE0F901F90189526E816
:1005E000230F0296A11DB11DD2CFCF92DF92EF92C1
:1005F000FF920F931F93E82FF92F05C001501109A7
:100600002109310961F1908196239417B9F305C04E
:10061000015011092109310911F190819623941398
:10062000F7CFC12CD12CE12CF12C0AC08FEFC81AC6
:10063000D80AE80AF80A0C151D052E053F0579F0C1
:1006400080818623841791F36C2D7D2D8E2D9F2D17
:100650001F910F91FF90EF90DF90CF90089560E091
:1006600070E080E090E01F910F91FF90EF90DF909D
:10067000CF900895789484B5826084BD84B58160FC
:1006800084BD85B5826085BD85B5816085BD80915D
:100690006E00816080936E001092810080918100D5
:1006A00082608093810080918100816080938100CD
:1006B000809180008160809380008091B10084608F
:1006C0008093B1008091B00081608093B0008091F0
:1006D0007A00846080937A0080917A0082608093AF
:1006E0007A0080917A00816080937A0080917A000C
:1006F000806880937A001092C100E1EAF0E02491D2
:10070000EDE8F0E08491882399F090E0880F991F3C
:10071000FC01E859FF4FA591B491FC01E458FF4F4B
:10072000859194918FB7F894EC91E22BEC938FBF65
:1007300060EA662E60E0762EF3012491CCE8D0E0EA
:10074000FE0184918823C9F090E0880F991FFC0175
:10075000E859FF4FA591B491FC01E458FF4F459132
:1007600054913FB7F8949C91822F809598239C9345
:10077000FA019081892380833FBFE0918501F09148
:10078000860182E08083E0918101F09182011082F4
:10079000E0918301F09184018FEC808310928D01B0
:1007A000E0918901F0918A0186E08083E0918701E0
:1007B000F0918801808180618083E0918701F091D0
:1007C0008801808188608083E0918701F0918801B1
:1007D000808180688083E0918701F0918801808129
:1007E0008F7D808393E0C92ED12C23E2A22EB12CE1
:1007F00033ECE32EF12C40E0842E40E0942E80E098
:100800000E948C00C6010197F1F781E00E948C00E4
:10081000C5010197F1F780E00E948C00F30164911B
:10082000FE018491E82FF0E0EE0FFF1FEE58FF4F1E
:100830008591949100E412E42FE030E0462F0E946D
:10084000F502611571058105910529F06F5F7F4FF4
:100850008F4F9F4F9F7060937101709372018093CF
:100860007301909374010E94FF0426E933E44BE086
:100870005DE30E94630520E030E040E05FE30E941A
:1008800063050E94C7047093700160936F0182E159
:1008900091E00E94E10160916F0170917001072E5B
:1008A000000C880B990B97FF3AC00E94320284E239
:1008B00091E00E94E101C7010197F1F787E291E021
:1008C0000E94E10160917101709172018091730148
:1008D0009091740197FF27C00E94320284E291E058
:1008E0000E94E101C7010197F1F780916F0190919A
:1008F00070014497E4F489E391E00E94E10184E20D
:1009000091E00E94E1018114910409F478CF0E94E2
:100910003E01882309F473CF0E94000070CF4AE0A3
:100920000E94EE01C4CF4AE00E94EE01D7CF80E5DD
:1009300091E0E3CFE5E7F1E01382128288EE93E0E5
:10094000A0E0B0E084839583A683B78384E091E040
:100950009183808385EC90E09587848784EC90E098
:100960009787868780EC90E0918B808B81EC90E07C
:10097000938B828B82EC90E0958B848B86EC90E05D
:10098000978B868B118E128E138E148E08950E9473
:10099000CE046894B1110C945D0508950E9442053F
:1009A00088F09F5798F0B92F9927B751B0F0E1F030
:1009B000660F771F881F991F1AF0BA95C9F714C0E0
:1009C000B13091F00E945C05B1E008950C945C0593
:1009D000672F782F8827B85F39F0B93FCCF3869519
:1009E00077956795B395D9F73EF490958095709576
:1009F00061957F4F8F4F9F4F0895E89409C097FBF3
:100A00003EF490958095709561957F4F8F4F9F4FE5
:100A10009923A9F0F92F96E9BB279395F695879529
:100A200077956795B795F111F8CFFAF4BB0F11F4EC
:100A300060FF1BC06F5F7F4F8F4F9F4F16C0882393
:100A400011F096E911C0772321F09EE8872F762FC9
:100A500005C0662371F096E8862F70E060E02AF00A
:100A60009A95660F771F881FDAF7880F96958795F6
:100A700097F9089557FD9058440F551F59F05F3F5F
:100A800071F04795880F97FB991F61F09F3F79F0B0
:100A900087950895121613061406551FF2CF469532
:100AA000F1DF08C0161617061806991FF1CF8695B4
:100AB0007105610508940895E894BB276627772798
:100AC000CB0197F908950E9476050C94E7050E94E2
:100AD000D90538F00E94E00520F0952311F00C9420
:100AE000D0050C94D60511240C945D050E943A059E
:100AF00070F3959FC1F3950F50E0551F629FF00171
:100B0000729FBB27F00DB11D639FAA27F00DB11D89
:100B1000AA1F649F6627B00DA11D661F829F222712
:100B2000B00DA11D621F739FB00DA11D621F839F99
:100B3000A00D611D221F749F3327A00D611D231F6F
:100B4000849F600D211D822F762F6A2F11249F57BD
:100B500050409AF0F1F088234AF0EE0FFF1FBB1FC0
:100B6000661F771F881F91505040A9F79E3F51057F
:100B700080F00C94D0050C945D055F3FE4F3983E43
:100B8000D4F3869577956795B795F795E7959F5F29
:100B9000C1F7FE2B880F911D9695879597F90895BB
:100BA00097F99F6780E870E060E008959FEF80EC20
:100BB000089500240A9416161706180609060895C3
:100BC00000240A9412161306140605060895092E29
:100BD0000394000C11F4882352F0BB0F40F4BF2B98
:100BE00011F460FF04C06F5F7F4F8F4F9F4F0895D8
:100BF000A1E21A2EAA1BBB1BFD010DC0AA1FBB1F21
:100C0000EE1FFF1FA217B307E407F50720F0A21B92
:100C1000B30BE40BF50B661F771F881F991F1A94FF
:100C200069F760957095809590959B01AC01BD0129
:100C3000CF010895EE0FFF1F0590F491E02D099468
:040C4000F894FFCF56
:100C4400000000007401D4000101C101320110014F
:100C540024014C4F473A2044697374616E636520E4
:100C64002D3E20000D0A004C4F473A204475726116
:100C740074696F6E202D3E2000414354494F4E3A13
:100C8400206D6F7665206261636B776172647300B7
:100C9400414354494F4E3A206D6F766520666F721A
:060CA40077617264730029
:00000001FF
